:03000000020006F5
:06005F0075080002000319
:0300030002007E7A
:20006500AF8210990280FB8F992210980280FB8599821200658599822275840F1202851229
:2000850002BF120329120351758400D2887584007494C0E07409C0E07480C0E012038015A7
:2000A5008115811581749CC0E07409C0E07480C0E01203801581158115817590FF1200E6DA
:2000C500E58260F922AF827D017E007C00C3EC9F500AEECD25E0CD33FE0C80F18D828E838D
:2000E5002275840012006F74AFC0E07409C0E07480C0E01203801581158115817E007F0097
:20010500EE2401F582EF3400F583E508F0750A007C008C82C007C006C0041200CAAA82ABCB
:2001250083D004D006D007A8087900E85202E95203EA4B6002050AE50A24FE5003750A008A
:200145000CBC070040CCEE2401FBEF3400FC8B828C83E0FAE50A035480F942028B828C837D
:20016500EAF00508E508248050037508000EBE00010FC3EE94FFEF942740859020047480FB
:20018500F0902017C4F07508007E007F00EE2401F582EF3400F583E0FC53047F7B00A90872
:2001A5007A00C007C006C004C003C001C002C006C00774B4C0E07409C0E07480C0E012030E
:2001C50080E58124F7F581D006D007E4F50AF509EE2401FAEF3400FB8A828B83E0F9850969
:2001E50082C007C006C003C002C0011200CAA882AC83D001D002D003D006D0077D00E95295
:2002050000ED5204E84C6002050AE50A24FE5003750A00050974F9250950BDAC0AE4C3CC2F
:2002250013CC13CCFDEE2401F582EF3400F583E0FB5303807A00ECB50306EDB502028020BE
:20024500C007C00674C5C0E07409C0E07480C0E012038015811581158112006FD006D007FD
:200265000508E508248050037508000EBE00010FC3EE94FFEF942750030201927582002240
:20028500AF8475840F75FFDE75FFADD2AF75E10475E20075E34075A43575800A75A5FF7506
:2002A5009CFF759DFF759EFF759FFF75C8FF75D8FF75E8FF75F8FF8F8422AF8475840F7533
:2002C5008C677D007E011DBDFF011EED4E70F7E58C30E7FB759701758A0075840F758904F7
:2002E50075840075B71075840F438901758D04758F01758E097D007E011DBDFF011EED4EA9
:2003050070F7438902E58930E4FB759702D2A9438E087584005389FD438901758C0D758A18
:20032500008F8422AF84758400AE89740F5EF589438920758DE5438E10858D8BD28E758417
:1703450000759850759110D2998F8422AF8475840075A3378F8422DE
:200994001B5B324A1B5B720048616C6C6F20566965746E616161616D0A0D001B5B324A0059
:2009B40030782578093078257809307825780A0D00596F7520676F6464616D6E20666169A4
:0709D4006C7572650A0D004D
:06003500E478FFF6D8FD9F
:200013007900E94400601B7A009009E6780075A228E493F2A308B8000205A2D9F4DAF27579
:02003300A2FF2A
:20003B007800E84400600A790175A200E4F309D8FC78FFE84427600C7928900001E4F0A373
:04005B00D8FCD9FAFA
:20035C00C00C85810C120065D00C2285823185833285F033E4F52EF52FF530850B3490036D
:20037C005C020452C00C85810CE50C24FBFF8F34E4F52EF52FF530E50C24FBF88631088660
:0D039C003208863390035C120452D00C220C
:2003A900AF82C024C025C0261203B68007C022C0238F8222158115811581052CE4B52C0250
:2003C900052D22AF8274302FFF24C6500A74072FFF3000034307208F820203A9E582FFC44A
:2003E900540FF582C0071203CCD007740F5FF5820203CC85820D85270E85280F85291085A4
:200409002A11AA2B751220EA2AFAE511235401FF8A064EFAE50E250EF50EE50F33F50FE590
:200429001033F510E51133F511C3EA950D4008EAC3950DFA430E01D512CD850E27850F28E0
:2004490085102985112A8A2B22858222858323852E24852F25853026E4F52CF52DAD31AEAC
:2004690032AF338D828E838FF0120974FC74012DF531E43EF5328F33ECFF7003020955BFE5
:200489002502800302094DC201C202C203C204C205C206C207C2087535007536007CFFAAA3
:2004A90031AB32AE338A828B838EF0120974FFA3AA82AB838A318B328E33BF25078F8212DA
:2004C90003A980998F3874D025385026E53824C64020BCFF12E53675F00AA4FD2F24D0F5F9
:2004E9003670C2D20280BEEC75F00AA42F24D0FC80B3BF2E07BCFFAD7C0080A98F05BD6175
:2005090000400CED248540075307DFD2008002C200BF2002806DBF2B028063BF2D028059F6
:20052900BF42028063BF43028068BF44030206F7BF460302070DBF48030204AEBF490302F2
:2005490006F7BF4A030204AEBF4C028040BF4F030206FEBF500302068CBF5302805CBF5448
:20056900030204AEBF5503020703BF5803020708BF5A030204AE020711D2010204AED20327
:200589000204AED2040204AED2060204AED2070204AE30060CE53414FE8E348E018707802F
:2005A90011E53424FEFE8E348E018705098706198D078F821203A902071AE53424FDFE8E10
:2005C900348E01870309870509870619198B278D288E298B828D838EF0C00412095CAD8245
:2005E900AE83D004BCFF028D0420012AC3ED95365024E536C39DF536AE368E031EEB6014CD
:20060900758220C006C005C0041203A9D004D005D00680E68E368C06852782852883852966
:20062900F0120974FCFF602F8E041EC374808CF063F08095F050208F82C006C0051203A9A3
:20064900D005D006AA27AB28AC290ABA00010B8A278B288C2980C120010302071AC3ED95B7
:2006690036400302071AE536C39DF536AE368E041EEC7003020718758220C0061203A9D0B0
:200689000680EBE53424FDFC8C348C01870209870309870419198A278B288C29AC29BC8051
:2006A9000040047F438014BC600040047F50800BBC400040047F4980027F588F82C0071292
:2006C90003A975823A1203A97582301203A97582781203A9D007BF4902800BBF5002800661
:2006E9008528821203E58527821203E58023D20575350A801C753508801775350A801275D2
:200709003510800DD20880098F821203A980028E3630085CE53424FCFE8E348E01870209D8
:2007290087030987040987061919198A278B288C298E2A7527DB752809752980852739853B
:20074900283A85293B74012539FAE4353AFCAE3B8A278C288E29853982853A83853BF012E0
:200769000974FEFF70030204668F821203A980CCE535700302046675371830062DE53414AF
:20078900FC8C348C01E7FA3395E0FBFCFE8A278B288C298E2A200566AA277B007C007E00E7
:2007A9008A278B288C298E2A8054300721E53424FCFE8E348E01870209870309870409876B
:2007C900061919198A278B288C298E2A8030E53424FEFE8E348E01870409870619EE3395C4
:2007E900E0FBFA8C278E288B298A2A200510AA27AB287C007E008A278B288C298E2A300571
:2008090022E52A30E71BC3E49527FAE49528FBE49529FCE4952AFE8A278B288C298E2A80E3
:2008290002C205D209A9377E00752B00853582C006C0011203FCD001D00620090BE52BC48A
:20084900FCE7FB4CF7198002A72B0EB209E52745284529452A70D289378E05E5367003754A
:200869003601200224200121ED04FEAC36C3EE9C5015758220C006C005C0041203A9D00435
:20088900D005D0061C80E68C3630050E75822DC0051203A9D00515368023ED602030030E05
:2008A90075822BC0051203A9D0051536800F30040C758220C0051203A9D00515362001229E
:2008C900AE368E041EC3ED9C502B3002047C3080027C208C82C006C0051203A9D005D006B2
:2008E90080E0C3ED95365008E536C39DF536800775360080028E36A9378D068E051EED602D
:2009090026B20920090A09E7C4540FFD8D2B80078705740F5DF52B852B82C006C00112030D
:20092900CCD001D00680D4200103020466AE368E051EED7003020466758220C0061203A95B
:13094900D00680EB8F821203A9020466852C82852D832295
:0B09DB003C4E4F20464C4F41543E0064
:18095C00AA82AB831209746003A380F8C3E5829AF582E5839BF5832244
:0D00060075813B120990E582600302000342
:1C09740020F71430F6148883A88220F507E6A88375830022E280F7E49322E02292
:04099000758200224A
:00000001FF
