:03000000020006F5
:03005F0002000399
:0300030002007B7D
:20006200AF8210990280FB8F992210980280FB8599821200628599822275840F1201A31212
:2000820001DD12024712026B758400D28875840074B5C0E07408C0E07480C0E012029A151E
:2000A200811581158174BDC0E07408C0E07480C0E012029A1581158115817590FF1200C7C3
:2000C200E58260F92275840012006C74D0C0E07408C0E07480C0E012029A158115811581C1
:2000E2007E007F008E048F05EC2401F582ED3400F58374CDF00CBC00010DC3EC94FFED94F0
:200102002F40E57EF07F1FEE2401F582EF3400F583E0FD7C00C007C006C005C00474D5C0E0
:20012200E07408C0E07480C0E012029AE58124FBF581D006D0070EBE00010FC3EE94FFEFC8
:20014200941F40C374DCC0E07408C0E07480C0E012029A15811581158112006C7E007F203C
:20016200EE2401F582EF3400F583E0FD7C00C007C006C005C00474D5C0E07408C0E07480F0
:20018200C0E012029AE58124FBF581D006D0070EBE00010FC3EE94FFEF942F40C37582009B
:2001A20022AF8475840F75FFDE75FFADD2AF75E10475E20075E34075A43575800A75A5FF3D
:2001C200759CFF759DFF759EFF759FFF75C8FF75D8FF75E8FF75F8FF8F8422AF8475840F17
:2001E200758C677D007E011DBDFF011EED4E70F7E58C30E7FB759701758A0075840F75896A
:200202000475840075B71075840F438901758D04758F01758E097D007E011DBDFF011EEDD6
:200222004E70F7438902E58930E4FB759702D2A9438E087584005389FD438901758C0D7538
:200242008A008F8422AF8475840053890F438920758DE5438E10858D8BD28E75840075980F
:1402620050759110D2998F8422AF8475840075A3378F8422D2
:2008B5001B5B324A1B5B720048616C6C6F20566965746E616161616D0A0D001B5B324A0039
:1508D500307825780A0D00436F6E74696E75652E2E2E0A0D00CC
:06003500E478FFF6D8FD9F
:200013007900E94400601B7A009008F5780075A230E493F2A308B8000205A2D9F4DAF27563
:02003300A2FF2A
:20003B007800E84400600A790175A200E4F309D8FC78FFE8442F600C7930900001E4F0A363
:04005B00D8FCD9FAFA
:20027600C009858109120062D0092285823185833285F033E4F52EF52FF530850834900264
:2002960076020371C009858109E50924FBFF8F34E4F52EF52FF530E50924FBF8863108861B
:0D02B60032088633900276120371D00922BF
:2002C300AF82C024C025C0261202D08007C022C0238F8222158115811581052CE4B52C021E
:2002E300052D22AF8274302FFF24C6500A74072FFF3000034307208F820202C3E582FFC418
:20030300540FF582C0071202E6D007740F5FF5820202E685820A85270B85280C85290D8564
:200323002A0EAA2B750F20EA2AFAE50E235401FF8A064EFAE50B250BF50BE50C33F50CE58F
:200343000D33F50DE50E33F50EC3EA950A4008EAC3950AFA430B01E50F14FF8F0F70C885A4
:200363000B27850C28850D29850E2A8A2B22858222858323852E24852F25853026E4F52C5C
:20038300F52DAD31AE32AF338D828E838FF0120895FC74012DF531E43EF5328F33ECFF7020
:2003A30003020876BF2502800302086EC201C202C203C204C205C206C207C2087535007583
:2003C30036007537FFAA31AB32AE338A828B838EF0120895FFA3AA82AB838A318B328E3324
:2003E300BF25078F821202C38098BF3000402DEF24C6402874FFB53712E53675F00AA42FA4
:20040300FC24D0F53670C4D20280C0E53775F00AA4FC8F05ED2C24D0F53780AFBF2E0A74E4
:20042300FFB537A775370080A2BF6100400CEF248540075307DFD2008002C200BF2002805E
:200443006DBF2B028063BF2D028059BF42028063BF43028068BF4403020614BF4603020692
:200463002ABF48030203CEBF4903020614BF4A030203CEBF4C028040BF4F0302061BBF505C
:20048300030205A9BF5302805ABF54030203CEBF5503020620BF5803020625BF5A03020328
:2004A300CE02062ED2010203CED2030203CED2040203CED2060203CED2070203CE30060AA7
:2004C300E53414F9893487078011E53424FEFE8E348E018705098706198D078F821202C3D6
:2004E300020637E53424FDFE8E348E01870409870509870619198C278D288E298C828D830C
:200503008EF012087DAD82AE8374FFB537028D37200126C3ED95365020E536C39DF536AEB8
:20052300368E041EEC6010758220C006C0051202C3D005D00680EA8E36AE37852782852864
:20054300838529F0120895FCFF602F8E041EC374808CF063F08095F050208F82C006C005F7
:200563001202C3D005D006AA27AB28AC290ABA00010B8A278B288C2980C1200103020637F0
:20058300C3ED95364003020637E536C39DF536AE368E041EEC7003020635758220C0061296
:2005A30002C3D00680EBE53424FDFC8C348C01870209870309870419198A278B288C29AC08
:2005C30029BC800040047F438014BC600040047F50800BBC400040047F4980027F588F82ED
:2005E300C0071202C375823A1202C37582301202C37582781202C3D007BF4902800BBF5093
:200603000280068528821202FF8527821202FF8023D20575350A801C753508801775350A05
:200623008012753510800DD20880098F821202C380028E3630085CE53424FCFE8E348E0131
:2006430087020987030987040987061919198A278B288C298E2A7527EA7528087529808567
:20066300273985283A85293B74012539FAE4353AFCAE3B8A278C288E29853982853A83851F
:200683003BF0120895FEFF70030203858F821202C380CCE535700302038575381530062D13
:2006A300E53414F9893487048C027B007C007E008A278B288C298E2A200566AA277B007CA2
:2006C300007E008A278B288C298E2A8054300721E53424FCFE8E348E018702098703098768
:2006E300040987061919198A278B288C298E2A8030E53424FEFE8E348E01870409870619CD
:20070300EE3395E0FBFA8C278E288B298A2A200510AA27AB287C007E008A278B288C298E00
:200723002A300522E52A30E71BC3E49527FAE49528FBE49529FCE4952AFE8A278B288C29A3
:200743008E2A8002C205D209A9387E00752B00853582C006C001120316D001D00620090BF2
:20076300E52BC4FCE7FB4CF7198002A72B0EB209E52745284529452A70D289388E05E53644
:200783007003753601200224200121ED04FEAC36C3EE9C5015758220C006C005C0041202B2
:2007A300C3D004D005D0061C80E68C3630050E75822DC0051202C3D00515368023ED60207D
:2007C30030030E75822BC0051202C3D0051536800F30040C758220C0051202C3D005153655
:2007E300200126AE368E041EC3ED9C502F3002067B307C0080047B207C008B82C006C005BE
:200803001202C3D005D00680DCC3ED95365008E536C39DF536800775360080028E36A93825
:200823008D068E051EED6026B20920090A09E7C4540FFD8D2B80078705740F5DF52B852B81
:2008430082C006C0011202E6D001D00680D4200103020385AE368E051EED700302038575F5
:1A0863008220C0061202C3D00680EB8F821202C3020385852C82852D8322FF
:0B08EA003C4E4F20464C4F41543E0056
:18087D00AA82AB831208956003A380F8C3E5829AF582E5839BF5832204
:0D00060075813B1208B1E582600302000322
:1C08950020F71430F6148883A88220F507E6A88375830022E280F7E49322E02272
:0408B100758200222A
:00000001FF
