:040000000200813247
:03000B000206FBEF
:0100130032BA
:01001B0032B2
:0100230032AA
:01002B0032A2
:01003300329A
:01003B003292
:01004300328A
:01004B003282
:01005300327A
:01005B003272
:01006300326A
:01006B003262
:01007300325A
:03007B0002061565
:1000DA00E4F535F536F537F538F539F53A02007EA7
:03007E0002010379
:2000EA00AF8210990280FB8F992210980280FB8599821200EA8599822275840F12071A1285
:20010A00073F1207A91207CD758400D28875840074C4C0E07413C0E07480C0E0120C1C15B9
:20012A00811581158174CCC0E07413C0E07480C0E0120C1C15811581158175262975270011
:20014A0075284074012429F523E43400F524752540E4F529F52AF533F534F531F532D28CB6
:20016A00120172E58260F92275840020EC04D2ECC2EDC029C02A74DFC0E07413C0E07480B7
:20018A00C0E0120C1CE58124FBF581C374FF95297486852AF063F08095F05020C3E52A64F5
:2001AA00809488501785370A85380B901F401207FC85823985833AE4F537F53885292B8583
:2001CA002A2CC3E5359450E53694005003020611E4F535F536F58474C4C0E07413C0E074BE
:2001EA0080C0E0120C1C158115811581853182853283120B68AC82AD83AEF0FFC004C0055E
:20020A00C006C0079000007440F5F0120825AC82AD83AEF0FFE58124FCF581E4C0E074E010
:20022A00C0E074FFC0E07444C0E08C828D838EF0EF12123185823B85833C85F03DF53EE579
:20024A008124FCF581853B82853C83853DF0E53E120B75AA82AB83C002C00374EEC0E0743B
:20026A0013C0E07480C0E0120C1CE58124FBF581E4C0E0C0E0C0E0C0E0853B82853C838589
:20028A003DF0E53E1209D6AB82E58124FCF581EB6006E53EB2E7F53E7B008B02853B8285DB
:2002AA003C83853DF0E53EC002120B75120B68A882A983AEF0FFC000C001C006C007853B06
:2002CA0082853C83853DF0E53E1207F1AC82AD83AEF0FFE58124FCF581C004C005C006C069
:2002EA000790000075F020744112082585823B85833C85F03DF53EE58124FCF581853B823B
:20030A00853C83853DF0E53E120B75AE82AF83C006C00774FBC0E07413C0E07480C0E0125D
:20032A000C1CE58124FBF581D0020ABA060050030202A674FEC0E07413C0E07480C0E01218
:20034A000C1C158115811581853382853483120B68AC82AD83AEF0FFC004C005C006C0079D
:20036A009000007440F5F0120825AC82AD83AEF0FFE58124FCF581E4C0E074E0C0E074FF29
:20038A00C0E07444C0E08C828D838EF0EF12123185823B85833C85F03DF53EE58124FCF595
:2003AA0081853B82853C83853DF0E53E120B75AE82AF83C006C0077401C0E07414C0E07425
:2003CA0080C0E0120C1CE58124FBF581E4C0E0C0E0C0E0C0E0853B82853C83853DF0E53EFF
:2003EA001209D6AF82E58124FCF581EF6006E53EB2E7F53E7B008B07853B82853C83853D3C
:20040A00F0E53EC007120B75120B68AB82AC83ADF0FEC003C004C005C006853B82853C8352
:20042A00853DF0E53E1207F1AB82AC83ADF0FEE58124FCF581C003C004C005C0069000003E
:20044A0075F020744112082585823B85833C85F03DF53EE58124FCF581853B82853C8385A7
:20046A003DF0E53E120B75AD82AE83C005C00674FBC0E07413C0E07480C0E0120C1CE5813B
:20048A0024FBF581D0070FBF0600500302040274FEC0E07413C0E07480C0E0120C1C15811A
:2004AA0015811581852D82852E83852FF0E53012098EAC82AD83AEF0FFC004C005C006C030
:2004CA00079000007440F5F0120825AC82AD83AEF0FFE58124FCF581E4C0E074E0C0E074C0
:2004EA00FFC0E07444C0E08C828D838EF0EF12123185823B85833C85F03DF53EE58124FC2A
:20050A00F581853B82853C83853DF0E53E120B75AE82AF83C006C007740EC0E07414C0E035
:20052A007480C0E0120C1CE58124FBF581E4C0E0C0E0C0E0C0E0853B82853C83853DF0E567
:20054A003E1209D6AF82E58124FCF581EF6006E53EB2E7F53E7F00853B82853C83853DF03A
:20056A00E53EC007120B75120B68AB82AC83ADF0FEC003C004C005C006853B82853C83855C
:20058A003DF0E53E1207F1AB82AC83ADF0FEE58124FCF581C003C004C005C00690000075ED
:2005AA00F020744112082585823B85833C85F03DF53EE58124FCF581853B82853C83853D7E
:2005CA00F0E53E120B75AD82AE83C005C00674FBC0E07413C0E07480C0E0120C1CE58124F3
:2005EA00FBF581D0070FBF06005003020561C039C03A741BC0E07414C0E07480C0E0120C1E
:20060A001CE58124FBF58175820022C022C0E0C0F0C082C083C007C006C005C004C003C050
:20062A0002C001C000C0D075D000758400AD26AE27AF288D828E838FF0E5BE1209BBAD23F8
:20064A00AE24AF258D828E838FF0E5BF1209BBC3E5319529E5326480852AF063F08095F048
:20066A005006852931852A32C3E5299533E52A64808534F063F08095F05006852933852AE7
:20068A0034C2ED852D0A852E0B852F0C85300D90007FE4F5F0120A06AC82AD83AEF0FFA8D4
:2006AA0029E52AF93395E0FAFBEC28FCED39FDEE3AFEEF3BFF750A80E4F50BF50CF50D8C6E
:2006CA00828D838EF0EF120B1685822D85832E85F02FF530D0D0D000D001D002D003D004F1
:2006EA00D005D006D007D083D082D0F0D0E0D02232C0E0C0D00535E4B535020536758C0DB2
:20070A00758A000537E4B537020538D0D0D0E032AF8475840F75FFDE75FFADD2AF75E1047A
:20072A0075E20075E34075A43575800A75A5007590FF8F8422AF8475840F758C677D007E82
:20074A00011DBDFF011EED4E70F7E58C30E7FB759701758A0075840F75890475840075B736
:20076A001075840F438901758D04758F01758E097D007E011DBDFF011EED4E70F74389020F
:20078A00E58930E4FB759702D2A9438E0875840053890D858989758C0D758A008F8422AF06
:2007AA008475840053890F438920758DE5438E10858D8BD28E758400759850759110D2993F
:2007CA008F8422AF8475840043D10253D1EE43BA0153BBF0D2EF53E8F2C2ED75BF0075BE86
:0707EA000043E7028F8422A7
:2013C4001B5B324A1B5B720048616C6C6F20566965746E616161616D0A0D000A0D20566F15
:2013E4006C746167653D202578004D61783A202020202025642E002564000A0D004D696E67
:201404003A202020202025642E00417665726167653A2025642E000A0D4672657175656E7E
:0714240063793A20257500F1
:0B07F100A8811818C6B2E7C6020A74FF
:2007FC007A10E4FBFCE58225E0F582E58333F583EB33FBEC33FCEB950AF5F0EC950B40060D
:09081C00FCABF0438201DADD229D
:2008250012092DBC0003020BCAEF60FA30D502B2D1E583B4FF03020BE0E582B4FF03020BCD
:20084500E0258340072482400B020BCA2483145003020BE0F582EA8DF0A4A8F0EA8EF0A4DB
:2008650028F8E435F0F9EB8DF0A428E935F0F9E433CA8FF0A429F9EA35F0FAEBF88EF0A4E2
:2008850029F9EA35F0FAE433FBEC8DF0A429F9EA35F0FAE43BFBE88FF0A42AFAEB35F0FB8A
:2008A500E433CCFD8EF0A42AFAEB35F0FBE43CFCED8FF0A42BFBEC35F0FC20E70312095B23
:0308C500020BA97A
:2008C800FB7A20E4FCFDFEFFE5822582F582E58333F583E5F033F5F0EB33FB4017DAE98069
:2008E80042E5822582F582E58333F583E5F033F5F0EB33FBEC33FCED33FDEE33FEEF33FF98
:20090800EC950AED950BEE950CEF950D4013EC950AFCED950BFDEE950CFEEF950DFF438251
:0509280001DABEEB2224
:20092D00AA82AB83A2F73392D1F5826002D2F7ACF0E58124F9F8E6FD08E6FE0886F008E62D
:0E094D00A2F73392D5F5836002D2F7AFF02205
:0600B000E478FFF6D8FD24
:20095B007804EC7011E58224F8500AF582E4C9CACBFCD8EF22EC7820058220E713D582019B
:13097B0022C3E933F9EA33FAEB33FBEC33FCD8EA158222A9
:20098E00FCABF0AA83A982749EF582C2D1EC30E716D2D1E9F42401F9EAF43400FAEBF43468
:0D09AE0000FBECF43400FC12095B020BA905
:20008E007900E94400601B7A00901436780175A200E493F2A308B8000205A2D9F4DAF275CA
:0200AE00A2FFAF
:1B09BB0020F71130F6138883A88220F509F6A8837583002280FEF280F5F0223B
:2009D600FFA8811818120AEBD2D133E6400730E70B7582002220E70675820122C2D1120A8E
:1009F600CDE97003F5822220D101B3E433F58222DA
:200A0600AAF0FBE582850AF0A4FCADF0E583850AF0A42DFDE435F0FEE582850BF0A42DFDA7
:200A2600E5F03EFEE433FFEA850AF0A42EFEE5F03FFFE583850BF0A42EFEE5F03FFFE5820B
:200A4600850CF0A42EFEE5F03FFFEB850AF0A42FFFEA850BF0A42FFFE583850CF0A42FFFF9
:0E0A6600E582850DF0A42F8EF08D838C822208
:200A740012092D7900E583B58202800D50031211FFE583C39582121310E5D0C465D020E1D8
:200A940017EA2DFAEB3EFBEC3FFC50097401121310EC4480FC020BA9C3EA9DFAEB9EFBECB6
:190AB4009FFC500FC3E499F9E49AFAE49BFBE49CFCB2D112095B020BA9D9
:2000B6007800E84400600A790175A200E4F309D8FC7800E84400600C7900900001E4F0A346
:0400D600D8FCD9FA7F
:200ACD007901AA82E68F82B5821318E6B5F00E18E6B5830918E68A82B58202790022B48020
:200AED000FE5F0700AE5837006E58270027F00EFB6801518B6001018B6000B18B600060888
:090B0D00080876002208080822FD
:200B1600FBC2D530E715D2D5E4C39582F582E49583F583E495F0F5F0E49BFBE50D30E717C9
:200B3600B2D5E4C3950AF50AE4950BF50BE4950CF50CE4950DF50DEB1208C830D513FBE47D
:120B5600C39582F582E49583F583E495F0F5F0E49B22D9
:0D0B6800AC83AB827A007900748E0209978D
:200B7500121353700AE582458345F0700122E430D112F4700BE5F0F47006E58330E7012230
:140B950090800022700AE5F07006E58320E70122907FFF2293
:200BA900B98003EA13B34010EA2401FAE43BFBE43CFC50047C800582BC000EBB000BBA0090
:200BC90008E4F5F0F583F58222A2D1E582138CF092F78B838A8222E4F583F58275F080F450
:0F0BE900A2D11322E4F583F58275F0C0747F2248
:200BF800C0098581091200EAD0092285824E85834F85F050E4F54BF54CF54D850851900B7D
:200C1800F8020CF3C009858109E50924FBFF8F51E4F54BF54CF54DE50924FBF8864E0886F1
:0D0C38004F088650900BF8120CF3D00922E3
:200C4500AF82C041C042C043120C528007C03FC0408F82221581158115810549E4B549023B
:200C6500054A22AF8274302FFF24C6500A74072FFF3000034307208F82020C45E582FFC4E3
:200C8500540FF582C007120C68D007740F5FF582020C6885820A85440B85450C85460D856A
:200CA500470EAA48750F20EA2AFAE50E235401FF8A064EFAE50B250BF50BE50C33F50CE5CA
:200CC5000D33F50DE50E33F50EC3EA950A4008EAC3950AFA430B01E50F14FF8F0F70C88519
:200CE5000B44850C45850D46850E478A482285823F858340854B41854C42854D43E4F5493B
:200D0500F54AAD4EAE4FAF508D828E838FF01212F4FC74012DF54EE43EF54F8F50ECFF7060
:200D2500030211F8BF250280030211F0C201C202C203C204C205C206C207C20875520075C4
:200D450053007554FFAA4EAB4FAE508A828B838EF01212F4FFA3AA82AB838A4E8B4F8E5047
:200D6500BF25078F82120C458098BF3000402DEF24C6402874FFB55412E55375F00AA42F52
:200D8500FC24D0F55370C4D20280C0E55475F00AA4FC8F05ED2C24D0F55480AFBF2E0A7402
:200DA500FFB554A775540080A2BF6100400CEF248540075307DFD2008002C200BF20028099
:200DC5006DBF2B028063BF2D028059BF42028063BF43028068BF4403020F96BF4603020F73
:200DE500ACBF4803020D50BF4903020F96BF4A03020D50BF4C028040BF4F03020F9DBF5021
:200E050003020F2BBF5302805ABF5403020D50BF5503020FA2BF5803020FA7BF5A03020D64
:200E250050020FB0D201020D50D203020D50D204020D50D206020D50D207020D5030060A52
:200E4500E55114F9895187078011E55124FEFE8E518E018705098706198D078F82120C454A
:200E6500020FB9E55124FDFE8E518E01870409870509870619198C448D458E468C828D8364
:200E85008EF0121219AD82AE8374FFB554028D54200126C3ED95535020E553C39DF553AEF6
:200EA500538E041EEC6010758220C006C005120C45D005D00680EA8E53AE548544828545BC
:200EC500838546F01212F4FCFF602F8E041EC374808CF063F08095F050208F82C006C005E6
:200EE500120C45D005D006AA44AB45AC460ABA00010B8A448B458C4680C1200103020FB9A0
:200F0500C3ED95534003020FB9E553C39DF553AE538E041EEC7003020FB7758220C0061280
:200F25000C45D00680EBE55124FDFC8C518C01870209870309870419198A448B458C46AC5F
:200F450046BC800040047F438014BC600040047F50800BBC400040047F4980027F588F8244
:200F6500C007120C4575823A120C45758230120C45758278120C45D007BF4902800BBF50D7
:200F8500028006854582120C81854482120C818023D20575520A801C755208801775520AD1
:200FA5008012755210800DD20880098F82120C4580028E5330085CE55124FCFE8E518E01A6
:200FC50087020987030987040987061919198A448B458C468E4775442B75451475468085C4
:200FE500445685455785465874012556FAE43557FCAE588A448C458E4685568285578385FE
:2010050058F01212F4FEFF7003020D078F82120C4580CCE5527003020D0775551530062D23
:20102500E55114F9895187048C027B007C007E008A448B458C468E47200566AA447B007C4B
:20104500007E008A448B458C468E478054300721E55124FCFE8E518E01870209870309872E
:20106500040987061919198A448B458C468E478030E55124FEFE8E518E0187040987061993
:20108500EE3395E0FBFA8C448E458B468A47200510AA44AB457C007E008A448B458C468E70
:2010A50047300522E54730E71BC3E49544FAE49545FBE49546FCE49547FE8A448B458C4613
:2010C5008E478002C205D209A9557E00754800855282C006C001120C98D001D00620090B68
:2010E500E548C4FCE7FB4CF7198002A7480EB209E54445454546454770D289558E05E553D1
:201105007003755301200224200121ED04FEAC53C3EE9C5015758220C006C005C004120CE2
:2011250045D004D005D0061C80E68C5330050E75822DC005120C45D00515538023ED6020A9
:2011450030030E75822BC005120C45D0051553800F30040C758220C005120C45D005155377
:20116500200126AE538E041EC3ED9C502F3002067B307C0080047B207C008B82C006C00515
:20118500120C45D005D00680DCC3ED95535008E553C39DF553800775530080028E53A95560
:2011A5008D068E051EED6026B20920090A09E7C4540FFD8D4880078705740F5DF54885489F
:2011C50082C006C001120C68D001D00680D4200103020D07AE538E051EED7003020D0775A9
:1A11E5008220C006120C45D00680EB8F82120C45020D07854982854A832296
:0B142B003C4E4F20464C4F41543E0009
:1A11FF00E582C583F582A2D133A2D592D11392D5ECCFFCEBCEFBEACDFA2278
:18121900AA82AB831212F46003A380F8C3E5829AF582E5839BF58322F5
:2012310012092D30D502B2D1BF0009BC0003020BED020BE0BC0003020BCAE583B4FF0BE5BC
:2012510082B4FF03020BED020BCAE582B4FF03020BE0C395835007247F400B020BCA2480CF
:20127100145003020BE0F582C3ED9AEE9BEF9C40111582C3EA33F9EB33FAEC33FBE433FC2E
:201291008005E4CCCBCAF9C08275F019C3E99DEA9EEB9FEC9400D5F002802D400EE99DF99E
:2012B100EA9EFAEB9FFBEC9400FCC3B3E833F8E58233F582E58333F583C3E933F9EA33FAFE
:2012D100EB33FBEC33FC80C4B3E4F938FAE43582FBE43583FCD082500405827C8012095BF6
:0312F100020BC12C
:0D0081007581581213AEE582600302007E07
:1C12F40020F71430F6148883A88220F507E6A88375830022E280F7E49322E02209
:201310006040F82582500274FFF582E824F8501ECCCBCAF9E4CC24F85014CBCAF9E4CB24E5
:20133000F8500BCAF9E4CA24F8500379002224086010F8C3EC13FCEB13FBEA13FAE913F998
:03135000D8F122AF
:201353001213B2C3749E95824039790012131030D126E9F42401F582EAF43400F583EBF487
:201373003400F5F0ECF43400700AE582458345F0700122E430E70F22EC20E71489828A8371
:1B1393008BF02230D10AE4F582F583F5F074802274FFF582F583F5F0747F226D
:0413AE007582002222
:1213B200AA82AB83A2F73392D1F5826002D2F7ACF02240
:00000001FF
