:03000000020006F5
:05005F00C200020003D5
:0300030002007D7B
:20006400AF8210990280FB8F992210980280FB8599821200648599822275840F1201DD12D4
:2000840001FF120269120289758400D28875840074DBC0E07408C0E07480C0E01202C0156E
:2000A400811581158174E3C0E07408C0E07480C0E01202C015811581158175080075090255
:2000C4001200CA80FB221098028019AF99BF7F0F8F82C007120185E582D007600780F18FB6
:2000E400821200EC75820022AF820508E50824EB501EC00774F6C0E07408C0E07480C0E03A
:200104001202C0158115811581D0070509750800E50924F75019C00774F9C0E07408C0E081
:200124007480C0E01202C0158115811581D0078F057E00C007C005C0067447C0E07409C0BE
:20014400E07480C0E01202C0E58124FBF581D007C2FA8F9BC2FF30FFFDD2FA759BFF30FFA4
:20016400FDAF9BC2FF7E00C007C0067454C0E07409C0E07480C0E01202C0E58124FBF58180
:2001840022745EC0E07409C0E07480C0E01202C0158115811581C2FA759B7FC2FF30FFFD48
:2001A400D2FA759BFF30FFFDAF9BC2FF8F057E00C007C005C006746CC0E07409C0E0748034
:2001C400C0E01202C0E58124FBF581D007BFFF05758200800375820122AF8475840F75FFCF
:2001E400DE75FFADD2AF75E10675E20075E34075A43575800A75A6FF8F8422AF8475840F59
:20020400758C677D007E011DBDFF011EED4E70F7E58C30E7FB759701758A0075840F758947
:200224000475840075B71075840F438901758D04758F01758E097D007E011DBDFF011EEDB4
:200244004E70F7438902E58930E4FB759702D2A9438E087584005389FD438901758C0D7516
:200264008A008F842275840053890F438920758DE5438E10858D8BD28E758400759850755B
:180284009110D29922AF8475840043F809439A40759D30D2FF8F84225F
:2008DB001B5B324A1B5B720048616C6C6F20566965746E616161616D0A0D000A0D001B5B78
:2008FB00731B5B31333B3148202020202020202020202020202020202020202020202020DC
:20091B002020202020202020202020202020202020202020202020202020202020202020BC
:20093B0020202020202020201B5B75002025630A1B5B3132421B5B44002025630A1B5B31D1
:17095B0034410020301B5B731B5B3133421B5B440025631B5B75008E
:06003500E478FFF6D8FD9F
:200013007900E94400601B7A0090097D780175A200E493F2A308B8000205A2D9F4DAF27509
:02003300A2FF2A
:20003B007800E84400600A790175A200E4F309D8FC7800E84400600C7900900001E4F0A3C1
:04005B00D8FCD9FAFA
:20029C00C00B85810B120064D00B2285823185833285F033E4F52EF52FF530850A34900234
:2002BC009C020397C00B85810BE50B24FBFF8F34E4F52EF52FF530E50B24FBF886310886A1
:0D02DC003208863390029C120397D00B224B
:2002E900AF82C024C025C0261202F68007C022C0238F8222158115811581052CE4B52C02D2
:20030900052D22AF8274302FFF24C6500A74072FFF3001034307208F820202E9E582FFC4CA
:20032900540FF582C00712030CD007740F5FF58202030C85820C85270D85280E85290F85E8
:200349002A10AA2B751120EA2AFAE510235401FF8A064EFAE50D250DF50DE50E33F50EE559
:200369000F33F50FE51033F510C3EA950C4008EAC3950CFA430D01E51114FF8F1170C8856C
:200389000D27850E28850F2985102A8A2B22858222858323852E24852F25853026E4F52C2E
:2003A900F52DAD31AE32AF338D828E838FF01208BBFC74012DF531E43EF5328F33ECFF70D4
:2003C9000302089CBF25028003020894C202C203C204C205C206C207C208C2097535007509
:2003E90036007537FFAA31AB32AE338A828B838EF01208BBFFA3AA82AB838A318B328E33D8
:20040900BF25078F821202E98098BF3000402DEF24C6402874FFB53712E53675F00AA42F57
:20042900FC24D0F53670C4D20380C0E53775F00AA4FC8F05ED2C24D0F53780AFBF2E0A74BD
:20044900FFB537A775370080A2BF6100400CEF248540075307DFD2018002C201BF20028036
:200469006DBF2B028063BF2D028059BF42028063BF43028068BF440302063ABF4603020646
:2004890050BF48030203F4BF490302063ABF4A030203F4BF4C028040BF4F03020641BF5078
:2004A900030205CFBF5302805ABF54030203F4BF5503020646BF580302064BBF5A0302036A
:2004C900F4020654D2020203F4D2040203F4D2050203F4D2070203F4D2080203F430070A71
:2004E900E53414F9893487078011E53424FEFE8E348E018705098706198D078F821202E98A
:2005090002065DE53424FDFE8E348E01870409870509870619198C278D288E298C828D83BF
:200529008EF01208A3AD82AE8374FFB537028D37200226C3ED95365020E536C39DF536AE6B
:20054900368E041EEC6010758220C006C0051202E9D005D00680EA8E36AE37852782852818
:20056900838529F01208BBFCFF602F8E041EC374808CF063F08095F050208F82C006C005AB
:200589001202E9D005D006AA27AB28AC290ABA00010B8A278B288C2980C120020302065D7D
:2005A900C3ED9536400302065DE536C39DF536AE368E041EEC700302065B758220C0061224
:2005C90002E9D00680EBE53424FDFC8C348C01870209870309870419198A278B288C29ACBC
:2005E90029BC800040047F438014BC600040047F50800BBC400040047F4980027F588F82C7
:20060900C0071202E975823A1202E97582301202E97582781202E9D007BF4902800BBF50D4
:200629000280068528821203258527821203258023D20675350A801C753508801775350A90
:200649008012753510800DD20980098F821202E980028E3630095CE53424FCFE8E348E01E3
:2006690087020987030987040987061919198A278B288C298E2A75277275280975298085B8
:20068900273985283A85293B74012539FAE4353AFCAE3B8A278C288E29853982853A8385F9
:2006A9003BF01208BBFEFF70030203AB8F821202E980CCE53570030203AB75381730072D52
:2006C900E53414F9893487048C027B007C007E008A278B288C298E2A200666AA277B007C7B
:2006E900007E008A278B288C298E2A8054300821E53424FCFE8E348E018702098703098741
:20070900040987061919198A278B288C298E2A8030E53424FEFE8E348E01870409870619A6
:20072900EE3395E0FBFA8C278E288B298A2A200610AA27AB287C007E008A278B288C298ED9
:200749002A300622E52A30E71BC3E49527FAE49528FBE49529FCE4952AFE8A278B288C297C
:200769008E2A8002C206D20AA9387E00752B00853582C006C00112033CD001D006200A0BA3
:20078900E52BC4FCE7FB4CF7198002A72B0EB20AE52745284529452A70D289388E05E5361D
:2007A9007003753601200324200221ED04FEAC36C3EE9C5015758220C006C005C00412028A
:2007C900E9D004D005D0061C80E68C3630060E75822DC0051202E9D00515368023ED60200A
:2007E90030040E75822BC0051202E9D0051536800F30050C758220C0051202E9D0051536E1
:20080900200226AE368E041EC3ED9C502F3003067B307C0080047B207C008B82C006C00595
:200829001202E9D005D00680DCC3ED95365008E536C39DF536800775360080028E36A938D9
:200849008D068E051EED6026B20A200A0A09E7C4540FFD8D2B80078705740F5DF52B852B59
:2008690082C006C00112030CD001D00680D42002030203ABAE368E051EED70030203AB755B
:1A0889008220C0061202E9D00680EB8F821202E90203AB852C82852D832267
:0B0972003C4E4F20464C4F41543E00CD
:1808A300AA82AB831208BB6003A380F8C3E5829AF582E5839BF58322B8
:0D00060075813B1208D7E5826003020003FC
:1C08BB0020F71430F6148883A88220F507E6A88375830022E280F7E49322E0224C
:0408D7007582002204
:00000001FF
