:040000000200813247
:01000B0032C2
:0100130032BA
:01001B0032B2
:0100230032AA
:01002B0032A2
:01003300329A
:01003B003292
:01004300328A
:01004B003282
:01005300327A
:01005B003272
:01006300326A
:01006B003262
:01007300325A
:03007B0002019DE2
:0800DA00E4F514F51502007EA7
:03007E000200FB82
:2000E200AF8210990280FB8F992210980280FB8599821200E28599822275840F1202511263
:2001020002761202E012030812032C758400D28875840074AFC0E0740AC0E07480C0E01240
:20012200049B15811581158174B7C0E0740AC0E07480C0E012049B158115811581750B0EDE
:20014200750C00750D407401240EF508E43400F509750A40E4F50EF50FD28C120165E582B9
:2001620060F9227584000514E4B51402051520EC04D2ECC2EDAD0BAE0CAF0D8D828E838FCD
:20018200F0120A8FF5D2AD08AE09AF0A8D828E838FF0120A8FF5D375820022C022C0E0C069
:2001A200F0C082C083C007C006C005C004C003C002C001C000C0D075D000758400AD0BAE78
:2001C2000CAF0D8D828E838FF0E5BE12039CAD08AE09AF0A8D828E838FF0E5BF12039CC287
:2001E200ED85101885111985121A85131B90007FE4F5F01203B7AC82AD83AEF0FFA80EE516
:200202000FF93395E0FAFBEC28FCED39FDEE3AFEEF3BFF751880E4F519F51AF51B8C828DFC
:20022200838EF0EF12042585821085831185F012F513D0D0D000D001D002D003D004D00543
:20024200D006D007D083D082D0F0D0E0D02232AF8475840F75FFDE75FFADD2AF75E10475B8
:20026200E20075E34075A43575800A75A5007590FF8F8422AF8475840F758C677D007E01C3
:200282001DBDFF011EED4E70F7E58C30E7FB759701758A0075840F75890475840075B710F4
:2002A20075840F438901758D04758F01758E097D007E011DBDFF011EED4E70F7438902E507
:2002C2008930E4FB759702D2A9438E0875840053890D858989758C0D758A008F8422AF8434
:2002E200758400AE89740F5EF589438920758DE5438E10858D8BD28E758400759850759160
:2003020010D2998F8422AF8475840043D10253D1EE53BAFE53BBF0D2EF53E8F2C2ED75BFFD
:150322000075BE0043E7028F8422AF8475840075D4808F842208
:1B0AAF001B5B324A1B5B720048616C6C6F20566965746E616161616D0A0D0034
:20033700FB7A20E4FCFDFEFFE5822582F582E58333F583E5F033F5F0EB33FB4017DAE980FF
:2003570042E5822582F582E58333F583E5F033F5F0EB33FBEC33FCED33FDEE33FEEF33FF2E
:20037700EC9518ED9519EE951AEF951B4013EC9518FCED9519FDEE951AFEEF951BFF438278
:0503970001DABEEB22BB
:0600B000E478FFF6D8FD24
:20008E007900E94400601B7A00900AD5780175A200E493F2A308B8000205A2D9F4DAF27535
:0200AE00A2FFAF
:1B039C0020F71130F6138883A88220F509F6A8837583002280FEF280F5F02260
:2003B700AAF0FBE5828518F0A4FCADF0E5838518F0A42DFDE435F0FEE5828519F0A42DFDD3
:2003D700E5F03EFEE433FFEA8518F0A42EFEE5F03FFFE5838519F0A42EFEE5F03FFFE58245
:2003F700851AF0A42EFEE5F03FFFEB8518F0A42FFFEA8519F0A42FFFE583851AF0A42FFF17
:0E041700E582851BF0A42F8EF08D838C82224F
:2000B6007800E84400600A790175A200E4F309D8FC7800E84400600C7900900001E4F0A346
:0400D600D8FCD9FA7F
:20042500FBC2D530E715D2D5E4C39582F582E49583F583E495F0F5F0E49BFBE51B30E717B3
:20044500B2D5E4C39518F518E49519F519E4951AF51AE4951BF51BEB12033730D513FBE49B
:12046500C39582F582E49583F583E495F0F5F0E49B22D1
:20047700C0178581171200E2D0172285823285833385F034E4F52FF530F5318516359004A0
:200497007702056DC017858117E51724FBFF8F35E4F52FF530F531E51724FBF886320886DC
:0D04B7003308863490047712056DD01722AB
:2004C400AF82C025C026C0271204D18007C023C0248F8222158115811581052DE4B52D0211
:2004E400052E22AF8274302FFF24C6500A74072FFF3000034307208F820204C4E582FFC411
:20050400540FF582C0071204E7D007740F5FF5820204E785821885281985291A852A1B8520
:200524002B1CAA2C751D20EA2AFAE51C235401FF8A064EFAE5192519F519E51A33F51AE51A
:200544001B33F51BE51C33F51CC3EA95184008EAC39518FA431901D51DCD851928851A2954
:20056400851B2A851C2B8A2C22858223858324852F25853026853127E4F52DF52EAD32AE6C
:2005840033AF348D828E838FF0120A8FFC74012DF532E43EF5338F34ECFF7003020A70BF8C
:2005A40025028003020A68C201C202C203C204C205C206C207C2087536007537007CFFAA69
:2005C40032AB33AE348A828B838EF0120A8FFFA3AA82AB838A328B338E34BF25078F82129C
:2005E40004C480998F3974D025395026E53924C64020BCFF12E53775F00AA4FD2F24D0F5BD
:200604003770C2D20280BEEC75F00AA42F24D0FC80B3BF2E07BCFFAD7C0080A98F05BD6157
:2006240000400CED248540075307DFD2008002C200BF2002806DBF2B028063BF2D028059DA
:20064400BF42028063BF43028068BF4403020812BF4603020828BF48030205C9BF49030281
:200664000812BF4A030205C9BF4C028040BF4F03020819BF50030207A7BF5302805CBF54BA
:20068400030205C9BF550302081EBF5803020823BF5A030205C902082CD2010205C9D20363
:2006A4000205C9D2040205C9D2060205C9D2070205C930060CE53514FE8E358E01870780A1
:2006C40011E53524FEFE8E358E018705098706198D078F821204C4020835E53524FDFE8EB9
:2006E400358E01870309870509870619198B288D298E2A8B828D838EF0C004120A77AD8209
:20070400AE83D004BCFF028D0420012AC3ED95375024E537C39DF537AE378E031EEB6014AC
:20072400758220C006C005C0041204C4D004D005D00680E68E378C06852882852983852A2A
:20074400F0120A8FFCFF602F8E041EC374808CF063F08095F050208F82C006C0051204C44F
:20076400D005D006AA28AB29AC2A0ABA00010B8A288B298C2A80C1200103020835C3ED9579
:20078400374003020835E537C39DF537AE378E041EEC7003020833758220C0061204C4D03C
:2007A4000680EBE53524FDFC8C358C01870209870309870419198A288B298C2AAC2ABC802F
:2007C4000040047F438014BC600040047F50800BBC400040047F4980027F588F82C0071276
:2007E40004C475823A1204C47582301204C47582781204C4D007BF4902800BBF50028006D5
:200804008529821205008528821205008023D20575360A801C753608801775360A80127576
:200824003610800DD20880098F821204C480028E3730085CE53524FCFE8E358E018702099C
:2008440087030987040987061919198A288B298C2A8E2B7528CA75290A752A8085283A8526
:20086400293B852A3C7401253AFAE4353BFCAE3C8A288C298E2A853A82853B83853CF012B7
:200884000A8FFEFF70030205818F821204C480CCE536700302058175384230062DE53514F6
:2008A400FC8C358C01E7FA3395E0FBFCFE8A288B298C2A8E2B200566AA287B007C007E00C5
:2008C4008A288B298C2A8E2B8054300721E53524FCFE8E358E018702098703098704098749
:2008E400061919198A288B298C2A8E2B8030E53524FEFE8E358E01870409870619EE3395A2
:20090400E0FBFA8C288E298B2A8A2B200510AA28AB297C007E008A288B298C2A8E2B30054A
:2009240022E52B30E71BC3E49528FAE49529FBE4952AFCE4952BFE8A288B298C2A8E2B80BE
:2009440002C205D209A9387E00752C00853682C006C001120517D001D00620090BE52CC44D
:20096400FCE7FB4CF7198002A72C0EB209E5284529452A452B70D289388E05E53770037527
:200984003701200224200121ED04FEAC37C3EE9C5015758220C006C005C0041204C4D004FB
:2009A400D005D0061C80E68C3730050E75822DC0051204C4D00515378023ED602030030ECB
:2009C40075822BC0051204C4D0051537800F30040C758220C0051204C4D005153720012248
:2009E400AE378E041EC3ED9C502B3002047C3080027C208C82C006C0051204C4D005D00679
:200A040080E0C3ED95375008E537C39DF537800775370080028E37A9388D068E051EED600A
:200A240026B20920090A09E7C4540FFD8D2C80078705740F5DF52C852C82C006C0011204ED
:200A4400E7D001D00680D4200103020581AE378E051EED7003020581758220C0061204C4CF
:130A6400D00680EB8F821204C4020581852D82852E83223F
:0B0ACA003C4E4F20464C4F41543E0074
:180A7700AA82AB83120A8F6003A380F8C3E5829AF582E5839BF583220C
:0D008100758142120AABE582600302007E29
:1C0A8F0020F71430F6148883A88220F507E6A88375830022E280F7E49322E02276
:040AAB00758200222E
:00000001FF
