:03000000020006F5
:0C005F00E4F530F531F532F53302000312
:0300030002008474
:20006B00AF8210990280FB8F992210980280FB85998212006B8599822275840F12025D1245
:20008B00027C1202E612030E12033212033D758400D2887584007483C0E07409C0E074802D
:2000AB00C0E012036F158115811581748BC0E07409C0E07480C0E012036F158115811581B9
:2000CB00E4F52CF52DF52EF52FF528F529F52AF52BD28CE4F53CF53DF53EF53FF538F539C6
:2000EB00F53AF53BF534F535F536F537F544F545F546F547F540F541F542F54312010FE521
:20010B008260F92275840030EC03020256D2ECC2ED30EDFDAEBE7F00ACBF8C05E44206EDDE
:20012B0042078E288F29752A00752B00C2ED85380A85390B853A0C853B0D850A3C850B3D4F
:20014B00850C3E850D3F85340E85350F853610853711850E38850F3985103A85113BE52887
:20016B002422FCE52934FAFDE52A34FFFEE52B34FFFF8C348D358E368F3775840375960064
:20018B0075950075940075930075C15075C20085359285349175C15075C200850B92850A78
:2001AB009175C13E75C200850F92850E9175C14C75C200854592854491052CE4B52C0C0538
:2001CB002DB52D07052EB52E02052F052CE4B52C0C052DB52D07052EB52E02052F052CE434
:2001EB00B52C0C052DB52D07052EB52E02052FAC957D007E007F008E118D108C0F8F0EAAC7
:20020B0094E4FBFEFFEA450EF530EB450FF531EE4510F532EF4511F533AC40AD41AE42AF4C
:20022B00438C448D458E468F4774DE2530FC74053531FDE43532FEE43533FF8C408D418EE9
:20024B00428F438B848540D28541D375840075820022AF8475840F75FFDE75FFADD2AF758A
:20026B00E10475E20075E34075A43575800A8F8422AF8475840F758C677D007E011DBDFFA5
:20028B00011EED4E70F7E58C30E7FB759701758A0075840F75890475840075B71075840FBC
:2002AB00438901758D04758F01758E097D007E011DBDFF011EED4E70F7438902E58930E469
:2002CB00FB759702D2A9438E0875840053890D858989758C0D758A008F8422AF84758400CF
:2002EB00AE89740F5EF589438920758DE5438E10858D8BD28E758400759850759110D299D5
:20030B008F8422AF8475840043D10253D1EE53BAFE53BBF0D2EF53E8F2C2ED75BF0075BE3C
:20032B000043E7028F8422AF8475840075D4808F8422AF8475840343C31053C3FC8F84229B
:1B0983001B5B324A1B5B720048616C6C6F20566965746E616161616D0A0D0061
:06003500E478FFF6D8FD9F
:200013007900E94400601B7A009009A9780175A200E493F2A308B8000205A2D9F4DAF275DD
:02003300A2FF2A
:20003B007800E84400600A790175A200E4F309D8FC7800E84400600C7900900001E4F0A3C1
:04005B00D8FCD9FAFA
:20034B00C00985810912006BD0092285825B85835C85F05DE4F558F559F55A85085E90035E
:20036B004B020441C009858109E50924FBFF8F5EE4F558F559F55AE50924FBF8865B0886CD
:0D038B005C08865D90034B120441D00922EE
:20039800AF82C04EC04FC0501203A58007C04CC04D8F82221581158115810556E4B556024C
:2003B800055722AF8274302FFF24C6500A74072FFF3000034307208F82020398E582FFC442
:2003D800540FF582C0071203BBD007740F5FF5820203BB85820A85510B85520C85530D8565
:2003F800540EAA55750F20EA2AFAE50E235401FF8A064EFAE50B250BF50BE50C33F50CE566
:200418000D33F50DE50E33F50EC3EA950A4008EAC3950AFA430B01D50FCD850B51850C52BB
:20043800850D53850E548A552285824C85834D85584E85594F855A50E4F556F557AD5BAE77
:200458005CAF5D8D828E838FF0120963FC74012DF55BE43EF55C8F5DECFF7003020944BF46
:200478002502800302093CC201C202C203C204C205C206C207C208755F007560007CFFAA71
:200498005BAB5CAE5D8A828B838EF0120963FFA3AA82AB838A5B8B5C8E5DBF25078F821200
:2004B800039880998F6274D025625026E56224C64020BCFF12E56075F00AA4FD2F24D0F573
:2004D8006070C2D20280BEEC75F00AA42F24D0FC80B3BF2E07BCFFAD7C0080A98F05BD615C
:2004F80000400CED248540075307DFD2008002C200BF2002806DBF2B028063BF2D02805908
:20051800BF42028063BF43028068BF44030206E6BF46030206FCBF480302049DBF49030237
:2005380006E6BF4A0302049DBF4C028040BF4F030206EDBF500302067BBF5302805CBF549D
:200558000302049DBF55030206F2BF58030206F7BF5A0302049D020700D20102049DD203A0
:2005780002049DD20402049DD20602049DD20702049D30060CE55E14FE8E5E8E0187078030
:2005980011E55E24FEFE8E5E8E018705098706198D078F82120398020709E55E24FDFE8EC5
:2005B8005E8E01870309870509870619198B518D528E538B828D838EF0C00412094BAD82BF
:2005D800AE83D004BCFF028D0420012AC3ED95605024E560C39DF560AE608E031EEB601436
:2005F800758220C006C005C004120398D004D005D00680E68E608C068551828552838553E1
:20061800F0120963FCFF602F8E041EC374808CF063F08095F050208F82C006C005120398D6
:20063800D005D006AA51AB52AC530ABA00010B8A518B528C5380C1200103020709C3ED95DD
:20065800604003020709E560C39DF560AE608E041EEC7003020707758220C006120398D04C
:200678000680EBE55E24FDFC8C5E8C01870209870309870419198A518B528C53AC53BC8066
:200698000040047F438014BC600040047F50800BBC400040047F4980027F588F82C00712A3
:2006B800039875823A120398758230120398758278120398D007BF4902800BBF50028006B6
:2006D8008552821203D48551821203D48023D205755F0A801C755F088017755F0A80127533
:2006F8005F10800DD20880098F8212039880028E6030085CE55E24FCFE8E5E8E0187020953
:2007180087030987040987061919198A518B528C538E5475519E755209755380855163850F
:20073800526485536574012563FAE43564FCAE658A518C528E538563828564838565F012CF
:200758000963FEFF70030204558F8212039880CCE55F700302045575611730062DE55E1487
:20077800FC8C5E8C01E7FA3395E0FBFCFE8A518B528C538E54200566AA517B007C007E00FC
:200798008A518B528C538E548054300721E55E24FCFE8E5E8E018702098703098704098780
:2007B800061919198A518B528C538E548030E55E24FEFE8E5E8E01870409870619EE3395D9
:2007D800E0FBFA8C518E528B538A54200510AA51AB527C007E008A518B528C538E543005DE
:2007F80022E55430E71BC3E49551FAE49552FBE49553FCE49554FE8A518B528C538E54807B
:2008180002C205D209A9617E00755500855F82C006C0011203EBD001D00620090BE555C404
:20083800FCE7FB4CF7198002A7550EB209E55145524553455470D289618E05E56070037535
:200858006001200224200121ED04FEAC60C3EE9C5015758220C006C005C004120398D00403
:20087800D005D0061C80E68C6030050E75822DC005120398D00515608023ED602030030ED3
:2008980075822BC005120398D0051560800F30040C758220C005120398D00515602001227D
:2008B800AE608E041EC3ED9C502B3002047C3080027C208C82C006C005120398D005D006AA
:2008D80080E0C3ED95605008E560C39DF560800775600080028E60A9618D068E051EED6042
:2008F80026B20920090A09E7C4540FFD8D5580078705740F5DF555855582C006C0011203A1
:20091800BBD001D00680D4200103020455AE608E051EED7003020455758220C00612039886
:13093800D00680EB8F821203980204558556828557832274
:0B099E003C4E4F20464C4F41543E00A1
:18094B00AA82AB831209636003A380F8C3E5829AF582E5839BF5832266
:0D00060075816512097FE582600302000329
:1C09630020F71430F6148883A88220F507E6A88375830022E280F7E49322E022A3
:04097F00758200225B
:00000001FF
