:0600000002001102073EA0
:03000B00020742A7
:20006A00752200752BE6752C10752D80752EED752F107530807531F57532107533807534FA
:20008A00FF753510753680753708753811753980753A0F753B11753C80753D18753E11751F
:1000AA003F80754023754100754240C20002000E30
:03000E000200D31A
:2000BA00AF8210990280FB8F992210980280FB8599821200BA8599822275840F12075912A6
:2000DA00077B1207E5758400D2887584007485C0E0740FC0E07480C0E01209711581158132
:2000FA001581748AC0E0740FC0E07480C0E012097115811581158175840FD2A8E4F584F5D9
:20011A0025F526F523F524D28C74AAC0E0740FC0E07480C0E012097115811581158174EFD0
:20013A00C0E0740FC0E07480C0E012097115811581158174FBC0E0740FC0E07480C0E01228
:20015A000971158115811581740BC0E07410C0E07480C0E01209711581158115817423C0CD
:20017A00E07410C0E07480C0E01209711581158115817436C0E07410C0E07480C0E0120962
:20019A00711581158115811201A780FB227F008F43C0071200C48582297485C0E0740FC0C1
:2001BA00E07480C0E012097115811581158174AAC0E0740FC0E07480C0E0120971158115B7
:2001DA0081158174EFC0E0740FC0E07480C0E012097115811581158174FBC0E0740FC0E0B4
:2001FA007480C0E0120971158115811581740BC0E07410C0E07480C0E01209711581158174
:20021A0015817423C0E07410C0E07480C0E01209711581158115817436C0E07410C0E0740F
:20023A0080C0E0120971158115811581D0077431B5290280227432B5290280757433B52938
:20025A00030203257434B5290302037D7435B5290302044C02044F120453AA82AB83ACF0BC
:20027A00FD750A02E4F50BF50CF50D8A828B838CF0ED1208FEAA82AB83ACF0FDEAF52A70F8
:20029A00187448C0E07410C0E07480C0E012097115811581158102044F744EC0E07410C0CF
:2002BA00E07480C0E012097115811581158102044F120453AA82AB83ACF0FD750A02E4F557
:2002DA000BF50CF50D8A828B838CF0ED1208FEAA82AB83ACF0FDEAF52A70187453C0E074FC
:2002FA0010C0E07480C0E012097115811581158102044F745AC0E07410C0E07480C0E012C5
:20031A00097115811581158102044F120453AA82AB83ACF0FD750A07E4F50BF50CF50D8ADF
:20033A00828B838CF0ED1208FEE582F52A75F003A4242BF98703098704098705C003C0047E
:20035A00C0051209711581158115817462C0E07410C0E07480C0E0120971158115811581F4
:20037A0002044FC0077465C0E07410C0E07480C0E0120971158115811581D007C007120018
:20039A00C4AD82D007BD0D02800DE54375F00AA42D24D0F54380E5C0077473C0E07410C095
:2003BA00E07480C0E0120971158115811581D007C0071200C4AD82D007BD0D02800BEF752C
:2003DA00F00AA42D24D0FF80E7C007120453AA82AB83ACF0FDD007EFFE3395E0FF74012EAD
:2003FA00F544E43FF545E543FE3395E0FFE544C39EFEE5459F8E0AF50B3395E0F50CF50DEC
:20041A008A828B838CF0ED1208FEAC82E5432CF52AAE2A3395E0FFC006C0077483C0E0746F
:20043A0010C0E07480C0E0120971E58124FBF58180031205377582002274022540F540E4F9
:20045A003541F541AD40AE41AF428D828E838FF0120F65FDA3120F65FC8D077E007D00A88B
:20047A0023A924E4FAFBE84205E94206EA4207EB42048D828E838FF0EC22AF827E007D00FC
:20049A00C3ED64808FF063F08095F05024C007C006C005748AC0E07410C0E07480C0E012A9
:2004BA000971158115811581D005D006D0070D80CFC2D575F003EE30E704B2D5F404A430AD
:2004DA00D50AF42401C5F0F43400C5F02401F582740035F0F583E0FBA3E0FCA3E0FDC0072A
:2004FA00C006C003C004C0051209711581158115817462C0E07410C0E07480C0E0120971C8
:20051A00158115811581D006D0070EC3EE64809498500302049890108E75F0802275461B87
:20053A0075475B75493B754B487F00852327852428C007120453AB82AC83ADF0FE750A09BB
:20055A00E4F50BF50CF50D8B828C838DF0EE1208FEAB820BC003120453AA82AC83ADF0FEA1
:20057A00750A09E4F50BF50CF50D8A828C838DF0EE1208FEAA82D0030A74302BF54874309B
:20059A002AF54A7446C0E07400C0E07440C0E0120971158115811581120453AB82AC83AD56
:2005BA00F0FE750A02E4F50BF50CF50D8B828C838DF0EE1208FEAB82AC83ADF0FED007EB73
:2005DA004C4D4E7019C0077498C0E07410C0E07480C0E0120971158115811581D007C0077A
:2005FA00120453AB82AC83ADF0FE750A15E4F50BF50CF50D8B828C838DF0EE1208FE858260
:20061A000A85830B85F00CF50D900003E4F5F0120890AB82AC83EB2449F582EC3400F58357
:20063A00E0FCA3E0FDA3E0FEC004C005C006120971158115811581120453AB82AC83ADF0C4
:20065A00FE750A04E4F50BF50CF50D8B828C838DF0EE1208FEAB82AC83ADF0FED007EB4C74
:20067A004D4E7019C007749EC0E07410C0E07480C0E0120971158115811581D007E523C31B
:20069A009527FDE5249528FEC3ED9414EE940040EC0FC3EF648094E450030205457F0085FD
:2006BA002327852428C0077485C0E0740FC0E07480C0E0120971158115811581D0078F82B8
:2006DA00C007120494D007E523C39527FDE5249528FEC3ED941EEE940040EC0FC3EF6480BB
:2006FA0094B240BB74A1C0E07410C0E07480C0E012097115811581158174B6C0E07410C0D6
:20071A00E07480C0E012097115811581158174CDC0E07410C0E07480C0E01209711581152D
:20073A008115812275220132C0E0C0D00523E4B523020524758C0D758A00D0D0D0E032AF1F
:20075A008475840F75FFDE75FFADD2AF75E10475E20475E34075A40175800675A6FF8F8470
:20077A0022AF8475840F758C677D007E011DBDFF011EED4E70F7E58C30E7FB759701758A75
:20079A000075840F75890475840075B71075840F438901758D04758F01758E097D007E0118
:2007BA001DBDFF011EED4E70F7438902E58930E4FB759702D2A9438E087584005389FD43C3
:2007DA008901758C0D758A008F8422AF84758400AE89740F5EF589438920758DE5438E10BD
:1307FA00858D8BD28E758400759850759110D2998F8422E3
:200F85001B5B324A0048656C6C6F206461726B6E657373206D79206F6C6420667269656E52
:200FA500640A0A0D0053656C65637420616E73776572207479706520696620796F752066C3
:200FC50065656C206C696B65206974204920646F6E27742074656C6C20796F752077686101
:200FE5007420746F20646F0A0D00312E205965732F4E6F0A0D00322E20547275652F4661C2
:201005006C73650A0D00332E2052616E646F6D20646179206F66207765656B0A0D00342EF6
:201025002052616E646F6D206E756D6265720A0D00352E2052616E646F6D206665656C7357
:201045000A0D005965730A0D004E6F0A0D00547275650A0D0046616C73650A0D000A0D0088
:201065004C6F77657220626F756E643A20000A0D557070657220626F756E643A20000A0D04
:2010850025640A0D001B5B43004F6F6F6F6F20796568001B5B313042001B44001B5B353B23
:2010A5003348446F6E2774206C657420796F7572001B5B363B334820647265616D73206220
:2010C50065206D656D6573001B5B373B33482D47617266756E6B656C20262053696D6F6ED4
:2010E500004D6F6E6461790054756573646179005765646E65736461790054687572736486
:201105006179004672696461790053617475726461790053756E6461790020202020202010
:201125002020202020202F2020202C2700202020202020202020202020272E5F5F7C0020D9
:201145002020202020202020202020207C2C207C00202020202020202020202020207C2D7D
:201165002D7C00202020202020202020202020207C5F5F7C0020202020202020202020200B
:2011850020207C20207C00202020202020202020202020207C5F5F7C20202020202020207C
:2011A5002C2D2E00202020202020202020202020207C5F5F7C2720202020202C2720202FC4
:2011C5000020202020202020205F2C2E2D272020202020272C5F2C27206F202F002020201A
:2011E500202020202F20202020203838383820202020202020202F00202020202020207C30
:20120500202020202020202020202020202020202F002020202020202020312020202020C9
:201225002020202020202020202F002020202020202020604C2020203838383820202020EE
:20124500202F002020202020202020207C20202020202020202020202F002020202020204F
:2012650020202F202020203D3D3D3D202020205C00202020202020202F20202020205F5F3D
:201285005F5F20202020205C002020202020202F2020202020285F5F5F5F2920206F202044
:2012A5005C0020202020202F202020202020202020202020206F202020205C002020202093
:2012C5002F202020202020202020202020206F20202020202C27002020202F2020202020A9
:2012E500202020202020202020205F2C2E275E0020202F20202020202020205F5F2C2E2DB7
:20130500227E5E0020272C2C2E2E2D2D7E7E5E004120726F636B206665656C73206E6F20BF
:201325007061696E2C20416E6420616E2069736C616E64206E657665722063726965732081
:201345003A2800596F75277265206120737472616E676572206E6F77206F6E746F206D659E
:201365002E00536865206F6E63652077617320612074727565206C6F7665206F66206D69C8
:201385006E652E0049206B6E6F772049276D2066616B696E672069742C2066616B696E67D9
:2013A5002069742C2049276D206E6F74207265616C6C79206D616B696E672069742E004ADC
:2013C50065737573206C6F76657320796F75206D6F7265207468616E20796F752077696CFB
:2013E5006C206B6E6F772E004920616D206A757374206120706F6F7220626F792C2074685F
:201405006F756768206D792073746F726965732073656C646F6D20746F6C642E0049207760
:20142500616E646572656420656D707479207374726565747320646F776E2C20706173747F
:20144500207468652073686F7020646973706C6179732E004C656176696E67206E6F7468F6
:20146500696E672062757420746865206465616420616E64206479696E67206261636B2050
:20148500696E206D79206C6974746C6520746F776E2E0043617468792C2049276D206C6F89
:2014A5007374204920736169642C2074686F7567682049206B6E6577207368652077617332
:2014C50020736C656570696E672E0049206B69737365642068657220686F6E6579206861EB
:2014E50069722077697468206D7920677261746566756C2074656172732E005768656E2091
:2015050074656172732061726520696E20796F757220657965732C20492077696C6C2064A2
:201525007279207468656D206F66662E0043616E20796F7520696D6167696E6520757320B3
:2015450079656172732066726F6D20746F6461792C2073686172696E672061207061726BC6
:201565002062656E63682071756965746C792E0054686520656C657068616E7473206172F3
:2015850065206B696E646C792062757420746865792772652064756D622E00492764207297
:2015A5006174686572206265206120666F72657374207468616E20612073747265657400F4
:2015C50041736B206D6520616E642049276C6C20706C617920736F2073776565746C792015
:2015E50049276C6C206D616B6520796F7520736D696C652E0048616C66206F66207468652A
:201605002074696D65207468657927726520676F6E6520616E64207468657920646F6E7453
:20162500206B6E6F772077686572652E00596F7527726520627265616B696E67206D792099
:2016450068656172742C20796F75277265207368616B696E67206D7920636F6E66696465C7
:201665006E6365206461696C792E0049276D20646170706C656420616E642064726F777355
:201685007920616E6420726561647920746F20736C6565702E004C65617665732061726522
:2016A5002062726F776E2C20746865726527732061207061746368206F6620736E6F772032
:2016C5006F6E207468652067726F756E642E00486F6D652C207768657265206D79206C6FF9
:2016E5007665206C69666527732077616974696E672073696C656E746C7920666F72206D15
:20170500652E00416E64207468652070656F706C6520626F77656420616E642070726179B8
:1E172500656420746F20746865206E656F6E20676F642074686579206D6164652E0090
:20174E001F11803211804411805611806811807A11805611806811808C1180A91180C6113A
:20176E0080E21180FD11801712803012804812805F12807612808E1280A71280C11280DC14
:20178E001280F51280091380151380481380671380891380C41380ED138022148059148073
:2017AE00981480D01480001580321580751580A01580C51580FA15803216807016809B1688
:0717CE0080D416800817808B
:20080D00F9E50A450B450C450D60777800C308E50D20E73BE50A25E0F50AE50B33F50BE5A7
:20082D000C33F50CE50D33F50DE582950AE583950BE5F0950CE9950D50D4C3E50D13F50D47
:20084D00E50C13F50CE50B13F50BE50A13F50AE582950AFCE583950BFDE5F0950CFEE99589
:20086D000D4007F98EF08D838C82C3E50D13F50DE50C13F50CE50B13F50BE50A13F50AD8D7
:03088D00CEE9228F
:06004000E478FFF6D8FD94
:20001E007987E94400601B7A0190174E780175A200E493F2A308B8000205A2D9F4DAF27597
:02003E00A2FF1F
:20089000AAF0FBE582850AF0A4FCADF0E583850AF0A42DFDE435F0FEE582850BF0A42DFD1F
:2008B000E5F03EFEE433FFEA850AF0A42EFEE5F03FFFE583850BF0A42EFEE5F03FFFE58283
:2008D000850CF0A42EFEE5F03FFFEB850AF0A42FFFEA850BF0A42FFFE583850CF0A42FFF71
:0E08F000E582850DF0A42F8EF08D838C822280
:200046007800E84400600A790175A200E4F309D8FC7800E84400600C7900900001E4F0A3B6
:04006600D8FCD9FAEF
:2008FE00F9C2D530E715D2D5E4C39582F582E49583F583E495F0F5F0E499F9E50D30E715EC
:20091E00E4C3950AF50AE4950BF50BE4950CF50CE4950DF50DE912080D30D512E4C39582FD
:0F093E00F582E49583F583E495F0F5F0E49922D2
:20094D00C0098581091200BAD0092285825B85835C85F05DE4F558F559F55A85085E900901
:20096D004D020A43C009858109E50924FBFF8F5EE4F558F559F55AE50924FBF8865B0886BB
:0D098D005C08865D90094D120A43D00922D6
:20099A00AF82C04EC04FC0501209A78007C04CC04D8F82221581158115810556E4B556023C
:2009BA00055722AF8274302FFF24C6500A74072FFF3001034307208F8202099AE582FFC431
:2009DA00540FF582C0071209BDD007740F5FF5820209BD85820A85510B85520C85530D854D
:2009FA00540EAA55750F20EA2AFAE50E235401FF8A064EFAE50B250BF50BE50C33F50CE55E
:200A1A000D33F50DE50E33F50EC3EA950A4008EAC3950AFA430B01D50FCD850B51850C52B3
:200A3A00850D53850E548A552285824C85834D85584E85594F855A50E4F556F557AD5BAE6F
:200A5A005CAF5D8D828E838FF0120F65FC74012DF55BE43EF55C8F5DECFF7003020F46BF2E
:200A7A0025028003020F3EC202C203C204C205C206C207C208C209755F007560007CFFAA59
:200A9A005BAB5CAE5D8A828B838EF0120F65FFA3AA82AB838A5B8B5C8E5DBF25078F8212F0
:200ABA00099A80998F6274D025625026E56224C64020BCFF12E56075F00AA4FD2F24D0F563
:200ADA006070C2D20380BEEC75F00AA42F24D0FC80B3BF2E07BCFFAD7C0080A98F05BD6153
:200AFA0000400CED248540075307DFD2018002C201BF2002806DBF2B028063BF2D028059FE
:200B1A00BF42028063BF43028068BF4403020CE8BF4603020CFEBF4803020A9FBF49030217
:200B3A000CE8BF4A03020A9FBF4C028040BF4F03020CEFBF5003020C7DBF5302805CBF5475
:200B5A0003020A9FBF5503020CF4BF5803020CF9BF5A03020A9F020D02D202020A9FD20466
:200B7A00020A9FD205020A9FD207020A9FD208020A9F30070CE55E14FE8E5E8E0187078004
:200B9A0011E55E24FEFE8E5E8E018705098706198D078F8212099A020D0BE55E24FDFE8EAD
:200BBA005E8E01870309870509870619198B518D528E538B828D838EF0C004120F4DAD82AF
:200BDA00AE83D004BCFF028D0420022AC3ED95605024E560C39DF560AE608E031EEB60142D
:200BFA00758220C006C005C00412099AD004D005D00680E68E608C068551828552838553D1
:200C1A00F0120F65FCFF602F8E041EC374808CF063F08095F050208F82C006C00512099ABE
:200C3A00D005D006AA51AB52AC530ABA00010B8A518B528C5380C1200203020D0BC3ED95CC
:200C5A00604003020D0BE560C39DF560AE608E041EEC7003020D09758220C00612099AD02C
:200C7A000680EBE55E24FDFC8C5E8C01870209870309870419198A518B528C53AC53BC805E
:200C9A000040047F438014BC600040047F50800BBC400040047F4980027F588F82C007129B
:200CBA00099A75823A12099A75823012099A75827812099AD007BF4902800BBF500280068E
:200CDA008552821209D68551821209D68023D206755F0A801C755F088017755F0A8012751A
:200CFA005F10800DD20980098F8212099A80028E6030095CE55E24FCFE8E5E8E0187020941
:200D1A0087030987040987061919198A518B528C538E547551437552177553808551638554
:200D3A00526485536574012563FAE43564FCAE658A518C528E538563828564838565F012C7
:200D5A000F65FEFF7003020A578F8212099A80CCE55F7003020A5775611530072DE55E1460
:200D7A00FC8C5E8C01E7FA3395E0FBFCFE8A518B528C538E54200666AA517B007C007E00F3
:200D9A008A518B528C538E548054300821E55E24FCFE8E5E8E018702098703098704098777
:200DBA00061919198A518B528C538E548030E55E24FEFE8E5E8E01870409870619EE3395D1
:200DDA00E0FBFA8C518E528B538A54200610AA51AB527C007E008A518B528C538E543006D4
:200DFA0022E55430E71BC3E49551FAE49552FBE49553FCE49554FE8A518B528C538E548073
:200E1A0002C206D20AA9617E00755500855F82C006C0011209EDD001D006200A0BE555C4F1
:200E3A00FCE7FB4CF7198002A7550EB20AE55145524553455470D289618E05E5607003752C
:200E5A006001200324200221ED04FEAC60C3EE9C5015758220C006C005C00412099AD004F1
:200E7A00D005D0061C80E68C6030060E75822DC00512099AD00515608023ED602030040EC1
:200E9A0075822BC00512099AD0051560800F30050C758220C00512099AD005156020022263
:200EBA00AE608E041EC3ED9C502B3003047C3080027C208C82C006C00512099AD005D00699
:200EDA0080E0C3ED95605008E560C39DF560800775600080028E60A9618D068E051EED603A
:200EFA0026B20A200A0A09E7C4540FFD8D5580078705740F5DF555855582C006C001120991
:200F1A00BDD001D00680D4200203020A57AE608E051EED7003020A57758220C00612099A63
:130F3A00D00680EB8F8212099A020A57855682855783225C
:0B1743003C4E4F20464C4F41543E00EE
:180F4D00AA82AB83120F656003A380F8C3E5829AF582E5839BF5832256
:0D001100758165120F81E582600302000E0B
:1C0F650020F71430F6148883A88220F507E6A88375830022E280F7E49322E0229B
:040F81007582002253
:00000001FF
