:03000000020006F5
:03005F0002000399
:0300030002007B7D
:20006200AF8210990280FB8F992210980280FB8599821200628599822275840F12033E1275
:2000820003631203CD1203F5758400D28875840074A6C0E0740DC0E07480C0E012062615FE
:2000A200811581158174AEC0E0740DC0E07480C0E0120626158115811581752528752600BD
:2000C20075274074012428F522E43400F523752440E4F528F529F54A7F10E54A254AFE24B4
:2000E2002AF87600087600DFF1E4F54BF54C1200F8E58260F922758400E59030E003020341
:200102003A74C1C0E0740DC0E07480C0E0120626158115811581D2ECC2ED30EDFDAD25AE12
:2001220026AF278D828E838FF0E5BE120528AD22AE23AF248D828E838FF0E5BF120528C289
:20014200EDE54A254A242AF8A62808A629E4F54BF54CFFEF2F242AF9870509870619ED2511
:200162004BF54BEE354CF54C0FC3EF6480949040E2E54CC4C54BC4540F654BC54B540FC543
:200182004B654BC54BF54C054AE54A24EF5003754A0075840074A6C0E0740DC0E07480C0E6
:2001A200E0120626158115811581AD25AE26AF278D828E838FF0120CF7FD7F00C005C00725
:2001C20074C9C0E0740DC0E07480C0E0120626E58124FBF581AD22AE23AF248D828E838F30
:2001E200F0120CF7FD7F00C005C00774DBC0E0740DC0E07480C0E0120626E58124FBF58113
:20020200C04BC04C74EDC0E0740DC0E07480C0E0120626E58124FBF581854B82854C83121E
:20022200059CAC82AD83AEF0FFC004C005C006C00790999A75F0197440120424AC82AD837D
:20024200AEF0FFE58124FCF581E4C0E0C0E07480C0E07445C0E08C828D838EF0EF120C3415
:2002620085824D85834E85F04FF550E58124FCF581854D82854E83854FF0E5501205A8AAC1
:2002820082AB83C002C00374FFC0E0740DC0E07480C0E0120626E58124FBF5817B00854DD9
:2002A20082854E83854FF0E550C0031205A812059CAA82AD83AEF0FFC002C005C006C00729
:2002C200854D82854E83854FF0E550120419AC82AD83AEF0FFE58124FCF581C004C005C00A
:2002E20006C00790000075F020744112042485824D85834E85F04FF550E58124FCF58185F7
:200302004D82854E83854FF0E5501205A8AE82AF83C006C007740EC0E0740EC0E07480C017
:20032200E0120626E58124FBF581D0030BC3EB6480948650030202A075820022AF847584DC
:200342000F75FFDE75FFADD2AF75E10475E20075E34075A43575800A75A5007590FF8F84D1
:2003620022AF8475840F758C677D007E011DBDFF011EED4E70F7E58C30E7FB759701758A91
:200382000075840F75890475840075B71075840F438901758D04758F01758E097D007E0134
:2003A2001DBDFF011EED4E70F7438902E58930E4FB759702D2A9438E087584005389FD43DF
:2003C2008901758C0D758A008F8422AF84758400AE89740F5EF589438920758DE5438E10D9
:2003E200858D8BD28E758400759850759110D2998F8422AF8475840043D10353D1EF53BA8F
:17040200FE53BBF0D2EF53E8F2C2ED75BF0075BE0043E7028F842282
:200DA6001B5B324A1B5B720048616C6C6F20566965746E616161616D0A0D0068656C6C6F21
:200DC6000A0D004C6F7720627974653A2020307825780A0D004869676820627974653A206C
:200DE600307825780A0D00417665726167653A202020307825780A0D00566F6C746167650E
:0B0E06003A20202025642E0025640007
:0B041900A8811818C6B2E7C602054310
:200424001204C7BC00030205D4EF60FA30D502B2D1E583B4FF030205EAE582B4FF0302053B
:20044400EA258340072482400B0205D424831450030205EAF582EA8DF0A4A8F0EA8EF0A4CE
:2004640028F8E435F0F9EB8DF0A428E935F0F9E433CA8FF0A429F9EA35F0FAEBF88EF0A4E7
:2004840029F9EA35F0FAE433FBEC8DF0A429F9EA35F0FAE43BFBE88FF0A42AFAEB35F0FB8F
:2004A400E433CCFD8EF0A42AFAEB35F0FBE43CFCED8FF0A42BFBEC35F0FC20E7031204F593
:0304C4000205B37B
:2004C700AA82AB83A2F73392D1F5826002D2F7ACF0E58124F9F8E6FD08E6FE0886F008E698
:0E04E700A2F73392D5F5836002D2F7AFF02270
:06003500E478FFF6D8FD9F
:2004F5007804EC7011E58224F8500AF582E4C9CACBFCD8EF22EC7820058220E713D5820106
:1305150022C3E933F9EA33FAEB33FBEC33FCD8EA15822213
:200013007900E94400601B7A00900E1C780175A200E493F2A308B8000205A2D9F4DAF27565
:02003300A2FF2A
:1B05280020F71130F6138883A88220F509F6A8837583002280FEF280F5F022D2
:200543001204C77900E583B58202800D5003120C02E583C39582120D26E5D0C465D020E16B
:2005630017EA2DFAEB3EFBEC3FFC50097401120D26EC4480FC0205B3C3EA9DFAEB9EFBECD8
:190583009FFC500FC3E499F9E49AFAE49BFBE49CFCB2D11204F50205B376
:20003B007800E84400600A790175A200E4F309D8FC7800E84400600C7900900001E4F0A3C1
:04005B00D8FCD9FAFA
:0C059C00E4AC83AB82FAF9748E020D1CF3
:0B05A8007F8E120D6FF58385F082221C
:2005B300B98003EA13B34010EA2401FAE43BFBE43CFC50047C800582BC000EBB000BBA008C
:2005D30008E4F5F0F583F58222A2D1E582138CF092F78B838A8222E4F583F58275F080F44C
:0F05F300A2D11322E4F583F58275F0C0747F2244
:20060200C009858109120062D0092285826085836185F062E4F55DF55EF55F850863900687
:20062200020206F8C009858109E50924FBFF8F63E4F55DF55EF55FE50924FBF8866008868A
:0D064200610886629006021206F8D00922B7
:20064F00AF82C053C054C05512065C8007C051C0528F8222158115811581055BE4B55B02B5
:20066F00055C22AF8274302FFF24C6500A74072FFF3000034307208F8202064FE582FFC4C9
:20068F00540FF582C007120672D007740F5FF58202067285820A85560B85570C85580D8528
:2006AF00590EAA5A750F20EA2AFAE50E235401FF8A064EFAE50B250BF50BE50C33F50CE5A2
:2006CF000D33F50DE50E33F50EC3EA950A4008EAC3950AFA430B01D50FCD850B56850C57F8
:2006EF00850D58850E598A5A22858251858352855D53855E54855F55E4F55BF55CAD60AE78
:20070F0061AF628D828E838FF0120CF7FC74012DF560E43EF5618F62ECFF7003020BFBBF23
:20072F0025028003020BF3C201C202C203C204C205C206C207C2087564007565007CFFAAF4
:20074F0060AB61AE628A828B838EF0120CF7FFA3AA82AB838A608B618E62BF25078F821291
:20076F00064F80998F6774D025675026E56724C64020BCFF12E56575F00AA4FD2F24D0F5EB
:20078F006570C2D20280BEEC75F00AA42F24D0FC80B3BF2E07BCFFAD7C0080A98F05BD619D
:2007AF0000400CED248540075307DFD2008002C200BF2002806DBF2B028063BF2D0280594E
:2007CF00BF42028063BF43028068BF440302099DBF46030209B3BF4803020754BF49030250
:2007EF00099DBF4A03020754BF4C028040BF4F030209A4BF5003020932BF5302805CBF54FC
:20080F0003020754BF55030209A9BF58030209AEBF5A030207540209B7D201020754D2038B
:20082F00020754D204020754D206020754D20702075430060CE56314FE8E638E0187078084
:20084F0011E56324FEFE8E638E018705098706198D078F8212064F0209C0E56324FDFE8E89
:20086F00638E01870309870509870619198B568D578E588B828D838EF0C004120C1CAD821D
:20088F00AE83D004BCFF028D0420012AC3ED95655024E565C39DF565AE658E031EEB601468
:2008AF00758220C006C005C00412064FD004D005D00680E68E658C06855682855783855859
:2008CF00F0120CF7FCFF602F8E041EC374808CF063F08095F050208F82C006C00512064FCC
:2008EF00D005D006AA56AB57AC580ABA00010B8A568B578C5880C12001030209C0C3ED954D
:20090F006540030209C0E565C39DF565AE658E041EEC70030209BE758220C00612064FD052
:20092F000680EBE56324FDFC8C638C01870209870309870419198A568B578C58AC58BC808E
:20094F000040047F438014BC600040047F50800BBC400040047F4980027F588F82C00712E9
:20096F00064F75823A12064F75823012064F75827812064FD007BF4902800BBF5002800614
:20098F0085578212068B85568212068B8023D20575640A801C756408801775640A801275EC
:2009AF006410800DD20880098F8212064F80028E6530085CE56324FCFE8E638E01870209CB
:2009CF0087030987040987061919198A568B578C588E5975561175570E75588085566885B1
:2009EF00576985586A74012568FAE43569FCAE6A8A568C578E58856882856983856AF012D5
:200A0F000CF7FEFF700302070C8F8212064F80CCE564700302070C75661530062DE56314FB
:200A2F00FC8C638C01E7FA3395E0FBFCFE8A568B578C588E59200566AA567B007C007E0024
:200A4F008A568B578C588E598054300721E56324FCFE8E638E0187020987030987040987A8
:200A6F00061919198A568B578C588E598030E56324FEFE8E638E01870409870619EE339501
:200A8F00E0FBFA8C568E578B588A59200510AA56AB577C007E008A568B578C588E593005F2
:200AAF0022E55930E71BC3E49556FAE49557FBE49558FCE49559FE8A568B578C588E598094
:200ACF0002C205D209A9667E00755A00856482C006C0011206A2D001D00620090BE55AC47D
:200AEF00FCE7FB4CF7198002A75A0EB209E55645574558455970D289668E05E56570037559
:200B0F006501200224200121ED04FEAC65C3EE9C5015758220C006C005C00412064FD00485
:200B2F00D005D0061C80E68C6530050E75822DC00512064FD00515658023ED602030030E55
:200B4F0075822BC00512064FD0051565800F30040C758220C00512064FD005156520012245
:200B6F00AE658E041EC3ED9C502B3002047C3080027C208C82C006C00512064FD005D00631
:200B8F0080E0C3ED95655008E565C39DF565800775650080028E65A9668D068E051EED606A
:200BAF0026B20920090A09E7C4540FFD8D5A80078705740F5DF55A855A82C006C0011206D5
:200BCF0072D001D00680D420010302070CAE658E051EED700302070C758220C00612064FE3
:130BEF00D00680EB8F8212064F02070C855B82855C83223D
:0B0E11003C4E4F20464C4F41543E0029
:1A0C0200E582C583F582A2D133A2D592D11392D5ECCFFCEBCEFBEACDFA227A
:180C1C00AA82AB83120CF76003A380F8C3E5829AF582E5839BF58322FB
:200C34001204C730D502B2D1BF0009BC00030205F70205EABC00030205D4E583B4FF0BE51E
:200C540082B4FF030205F70205D4E582B4FF030205EAC395835007247F400B0205D42480C2
:200C74001450030205EAF582C3ED9AEE9BEF9C40111582C3EA33F9EB33FAEC33FBE433FC2D
:200C94008005E4CCCBCAF9C08275F019C3E99DEA9EEB9FEC9400D5F002802D400EE99DF9A1
:200CB400EA9EFAEB9FFBEC9400FCC3B3E833F8E58233F582E58333F583C3E933F9EA33FA01
:200CD400EB33FBEC33FC80C4B3E4F938FAE43582FBE43583FCD082500405827C801204F564
:030CF4000205CB2B
:0D00060075816A120D69E582600302000336
:1C0CF70020F71430F6148883A88220F507E6A88375830022E280F7E49322E0220C
:130D1300FCABF0AA83A982749EC2D1F5821204F50205B3FD
:200D26006040F82582500274FFF582E824F8501ECCCBCAF9E4CC24F85014CBCAF9E4CB24D5
:200D4600F8500BCAF9E4CA24F8500379002224086010F8C3EC13FCEB13FBEA13FAE913F988
:030D6600D8F1229F
:040D6900758200226D
:200D6D007F9E120D9430D1030205D4C3EF9582500974FFF5F0F583F582227900120D2689E5
:070D8D00828A838BF0EC2247
:120D9400AA82AB83A2F73392D1F5826002D2F7ACF02264
:00000001FF
