:06000000020011020126BE
:03000B0002079D4C
:20006A00752231752332752433752541752634752735752836752942752A37752B38752C9B
:20008A0039752D43752E2A752F3075302375314475380075418C7542127543807544937534
:2000AA00451275468075479B754812754980754AA5754B12754C80754DAE754E12754F8040
:2000CA007550B57551127552807553BE755412755580755639755700755840C20002000E23
:03000E00020212D9
:2000EA00AF8210990280FB8F992210980280FB8599821200EA8599822275A7F075B00FD2C0
:20010A00A87533007534007535007F00EF2432F876000FC3EF6480948140F122C0E0C0F0A3
:20012A00C007C006C005C004C003C002C001C000C0D075D000853437E53560030201C87E0E
:20014A000074042EF5F005F07401800225E0D5F0FBFD74FFC39DF5B0753600EE2E25E0FC1C
:20016A008536F005F07A017B008006EA2AFAEB33FBD5F0F7ADB07F00ED5202EF5203EA4BE0
:20018A007025C3E534648094814003753400AF340534EF2432F97404C395362CD39410F408
:2001AA002422F88607A7070536C3E5366480948440AE0EC3EE64809484500302014B75B038
:2001CA000FE5357003753501E537B53403753500D0D0D000D001D002D003D004D005D006B7
:2001EA00D007D0F0D0E032C3E533648094814003753300E5332432F987077700E534B53350
:20020A0002800205338F822275840F1207B41207DC12084612086E120103758400D2887555
:20022A008400748AC0E07411C0E07480C0E0120B76158115811581748FC0E07411C0E07448
:20024A0080C0E0120B761581158115819011AF75F080120988758228120A299011BE75F01F
:20026A008012098875840FD2A8E4F584F53BF53CF539F53AD28C74CCC0E07411C0E074805D
:20028A00C0E0120B761581158115817411C0E07412C0E07480C0E0120B761581158115812B
:2002AA00741DC0E07412C0E07480C0E0120B76158115811581742DC0E07412C0E07480C0D9
:2002CA00E0120B761581158115817445C0E07412C0E07480C0E0120B761581158115811265
:2002EA0002EF80FB227F008F59C007120776E582F53FFC3395E0FDC004C0057458C0E07404
:20030A0012C0E07480C0E0120B76E58124FBF581120A1C748AC0E07411C0E07480C0E0125E
:20032A000B7615811581158174CCC0E07411C0E07480C0E0120B761581158115817411C03D
:20034A00E07412C0E07480C0E0120B76158115811581741DC0E07412C0E07480C0E0120B9C
:20036A0076158115811581742DC0E07412C0E07480C0E0120B761581158115817445C0E092
:20038A007412C0E07480C0E0120B76158115811581D0077431B53F02801A7432B53F02801C
:2003AA005F7433B53F030204567434B53F03020493020731120735AA82AB83ACF0FD750AA8
:2003CA000AE4F50BF50CF50D8A828B838CF0ED120B03AA82AB83ACF0FD8A40C37484854042
:2003EA00F063F08095F0400C90125D75F08012098802073190126175F080120988020731D9
:20040A00120735AA82AB83ACF0FD750A0AE4F50BF50CF50D8A828B838CF0ED120B03AA8252
:20042A00AB83ACF0FD8A40C374848540F063F08095F0400C90126475F08012098802073145
:20044A0090126975F080120988020731120735AA82AB83ACF0FD750A07E4F50BF50CF50D17
:20046A008A828B838CF0ED120B03E582F54075F003A42441F987030987040987058B828C7D
:20048A00838DF012098802073190126F75F080C007120988D007C007120776AD82D0078D55
:2004AA005ABD2302801C90005A75F040C007120988D007E55975F00AA4255AFD24D0F5597B
:2004CA0080D4758228C007120A2990127C75F080120988D007C007120776AD82D0078D5AD3
:2004EA00BD2302801A90005A75F040C007120988D007EF75F00AA4255AFD24D0FF80D6C01F
:20050A0007120735AA82AB83ACF0FDD0078F067F0074012EF55EE43FF55FAE597F00E55E68
:20052A00C39EFEE55F9F8E0AF50B3395E0F50CF50D8A828B838CF0ED120B03AC82E5592CF1
:20054A00F540120A1C7F008F06EE245BF876000EBE030040F47F00C2D575F064E54030E717
:20056A0004B2D5F4048430D502F404C0E0A2D595E0F5F0D0E045F07003020681EF245BF9B2
:20058A00C2D575F064E54030E704B2D5F4048430D502F4042430F7C2D575F064E54030E7C8
:2005AA0004B2D5F4048430D502F404C0E0A2D595E0F5F0D0E02430FDE435F0FEC007C00526
:2005CA00C0067489C0E07412C0E07480C0E0120B76E58124FBF581D007C2D575F064E5400A
:2005EA0030E704B2D5F4048430D502F40475F064A4D39540F4F5400FEF245BF9C2D575F024
:20060A000AE54030E704B2D5F4048430D502F4042430F7C2D575F00AE54030E704B2D5F478
:20062A00048430D502F404C0E0A2D595E0F5F0D0E02430FDE435F0FEC007C005C006748961
:20064A00C0E07412C0E07480C0E0120B76E58124FBF581D007C2D575F00AE54030E704B2D9
:20066A00D5F4048430D502F40475F00AA4D39540F4F5400F02071FC2D575F00AE54030E7C3
:20068A0004B2D5F4048430D502F404C0E0A2D595E0F5F0D0E045F0607CEF245BF9C2D575A5
:2006AA00F00AE54030E704B2D5F4048430D502F4042430F7C2D575F00AE54030E704B2D5DC
:2006CA00F4048430D502F404C0E0A2D595E0F5F0D0E02430FDE435F0FEC007C005C0067456
:2006EA0089C0E07412C0E07480C0E0120B76E58124FBF581D007C2D575F00AE54030E70462
:20070A00B2D5F4048430D502F40475F00AA4D39540F4F5400FEF245BF974302540F79000E3
:20072A005B75F0401209887582002274022556F556E43557F557AD56AE57AF588D828E83CC
:20074A008FF012116AFDA312116AFC8D077E007D00A839A93AE4FAFBE84205E94206EA42A2
:20076A0007EB42048D828E838FF0EC2285393B853A3C1201F1E582FF7016E539C3953BFDF8
:20078A00E53A953CFEC3ED940AEE940050DE80EA8F8222C0E0C0D00539E4B53902053A75D0
:2007AA008C0D758A00D0D0D0E032AF8475840F75FFDE75FFADD2AF75E10475E20475E34099
:2007CA0075A401758006759FFF759E0075E8FF8F8422AF8475840F758C677D007E011DBDCA
:2007EA00FF011EED4E70F7E58C30E7FB759701758A0075840F75890475840075B710758468
:20080A000F438901758D04758F01758E097D007E011DBDFF011EED4E70F7438902E58930D9
:20082A00E4FB759702D2A9438E087584005389FD438901758C0D758A008F8422AF84758460
:20084A0000AE89740F5EF589438920758DE5438E10858D8BD28E758400759850759110D209
:04086A00998F8422BC
:20118A001B5B324A0048656C6C6F206461726B6E657373206D79206F6C6420667269656E4B
:2011AA00640A0A0D0048656C6C6F206461726B6E657373006D79206F6C6420667269656EB8
:2011CA00640053656C65637420616E73776572207479706520696620796F75206665656C87
:2011EA00206C696B65206974204920646F6E27742074656C6C20796F752077686174207408
:20120A006F20646F0A0D00312E205965732F4E6F0A0D00322E20547275652F46616C73655E
:20122A000A0D00332E2052616E646F6D20646179206F66207765656B0A0D00342E20526140
:20124A006E646F6D206E756D6265720A0D0025630A0D00596573004E6F00547275650046A3
:20126A00616C7365004C6F77657220626F756E643A00557070657220626F756E643A0025A1
:20128A0063004D6F6E6461790054756573646179005765646E6573646179005468757273E0
:1B12AA00646179004672696461790053617475726461790053756E64617900CB
:20086E00AF8475840FAEF874FE5EF5F8AEF874FD5EF5F8AEF874FB5EF5F87582C8C0071272
:20088E000A5675E838758201120A4D758205120A4D43F804758205120A4DAEF874FB5EF583
:2008AE00F8758232120A5675E838758201120A4D758205120A4D43F804758205120A4DAEEA
:2008CE00F874FB5EF5F8758203120A5675E838758201120A4D758205120A4D43F80475825B
:2008EE0005120A4DAEF874FB5EF5F8758203120A567582061209D7120A1C75820E1209D792
:20090E00D0078F8422AF8475840F75E8FFAEF874FE5EF5F843F802758203C007120A4DD08C
:20092E000743F804758202C007120A4DD007E5E820E7F18F8422AF82AE8475840FC007C077
:20094E0006120913D006D00743F801ADF874FD5DF5F88FE8758201C006120A4D7582051260
:20096E000A4D43F804758205120A4DD006AFF874FB5FF5F88E8475820122AD82AE83AFF00B
:20098E007B007C00EB2DF8EC3EF98F02888289838AF012116A6031EB2DF8EC3EF98F028894
:2009AE008289838AF012116AF582C007C006C005C004C003120944D003D004D005D006D0C3
:2009CE00070BBB00BF0C80BC22AF82AE8475840FC007C006120913D006D007ADF874FE5DCC
:2009EE00F5F8ADF874FD5DF5F88FE8758201C006120A4D758205120A4D43F804758205124C
:200A0E000A4DD006AFF874FB5FF5F88E84227582011209D77582801209D722AF8274804F1C
:200A2E00F5821209D7227582801209D72230010875820E1209D7800675820C1209D722AF16
:200A4E00828F061FEE70FA22AF828F061FEE600C7582FFC007120A4DD00780EE22AF828F4C
:120A6E00061FEE600C7582FFC007120A56D00780EE2261
:200A8000F9E50A450B450C450D60777800C308E50D20E73BE50A25E0F50AE50B33F50BE532
:200AA0000C33F50CE50D33F50DE582950AE583950BE5F0950CE9950D50D4C3E50D13F50DD2
:200AC000E50C13F50CE50B13F50BE50A13F50AE582950AFCE583950BFDE5F0950CFEE99514
:200AE0000D4007F98EF08D838C82C3E50D13F50DE50C13F50CE50B13F50BE50A13F50AD862
:030B0000CEE92219
:06004000E478FFF6D8FD94
:20001E007900E94400601B7A009012D0780175A200E493F2A308B8000205A2D9F4DAF275A2
:02003E00A2FF1F
:200046007800E84400600A790175A200E4F309D8FC7800E84400600C7900900001E4F0A3B6
:04006600D8FCD9FAEF
:200B0300F9C2D530E715D2D5E4C39582F582E49583F583E495F0F5F0E499F9E50D30E715E4
:200B2300E4C3950AF50AE4950BF50BE4950CF50CE4950DF50DE9120A8030D512E4C3958281
:0F0B4300F582E49583F583E495F0F5F0E49922CB
:200B5200C0098581091200EAD0092285826F85837085F071E4F56CF56DF56E850872900B3C
:200B720052020C48C009858109E50924FBFF8F72E4F56CF56DF56EE50924FBF8866F088644
:0D0B920070088671900B52120C48D0092299
:200B9F00AF82C062C063C064120BAC8007C060C0618F8222158115811581056AE4B56A02A2
:200BBF00056B22AF8274302FFF24C6500A74072FFF3002034307208F82020B9FE582FFC40E
:200BDF00540FF582C007120BC2D007740F5FF582020BC285820A85650B85660C85670D85FC
:200BFF00680EAA69750F20EA2AFAE50E235401FF8A064EFAE50B250BF50BE50C33F50CE52F
:200C1F000D33F50DE50E33F50EC3EA950A4008EAC3950AFA430B01D50FCD850B65850C6684
:200C3F00850D67850E688A6922858260858361856C62856D63856E64E4F56AF56BAD6FAE50
:200C5F0070AF718D828E838FF012116AFC74012DF56FE43EF5708F71ECFF700302114BBFB5
:200C7F0025028003021143C203C204C205C206C207C208C209C20A7573007574007CFFAA1B
:200C9F006FAB70AE718A828B838EF012116AFFA3AA82AB838A6F8B708E71BF25078F82126A
:200CBF000B9F80998F7674D025765026E57624C64020BCFF12E57475F00AA4FD2F24D0F505
:200CDF007470C2D20480BEEC75F00AA42F24D0FC80B3BF2E07BCFFAD7C0080A98F05BD6137
:200CFF0000400CED248540075307DFD2028002C202BF2002806DBF2B028063BF2D028059F5
:200D1F00BF42028063BF43028068BF4403020EEDBF4603020F03BF4803020CA4BF490302FA
:200D3F000EEDBF4A03020CA4BF4C028040BF4F03020EF4BF5003020E82BF5302805CBF5452
:200D5F0003020CA4BF5503020EF9BF5803020EFEBF5A03020CA4020F07D203020CA4D20533
:200D7F00020CA4D206020CA4D208020CA4D209020CA430080CE57214FE8E728E01870780B5
:200D9F0011E57224FEFE8E728E018705098706198D078F82120B9F020F10E57224FDFE8E5C
:200DBF00728E01870309870509870619198B658D668E678B828D838EF0C004121152AD8251
:200DDF00AE83D004BCFF028D0420032AC3ED95745024E574C39DF574AE748E031EEB6014D5
:200DFF00758220C006C005C004120B9FD004D005D00680E68E748C06856582856683856773
:200E1F00F012116AFCFF602F8E041EC374808CF063F08095F050208F82C006C005120B9FA9
:200E3F00D005D006AA65AB66AC670ABA00010B8A658B668C6780C1200303020F10C3ED9545
:200E5F00744003020F10E574C39DF574AE748E041EEC7003020F0E758220C006120B9FD0C0
:200E7F000680EBE57224FDFC8C728C01870209870309870419198A658B668C67AC67BC80DF
:200E9F000040047F438014BC600040047F50800BBC400040047F4980027F588F82C0071294
:200EBF000B9F75823A120B9F758230120B9F758278120B9FD007BF4902800BBF500280066B
:200EDF00856682120BDB856582120BDB8023D20775730A801C757308801775730A801275A0
:200EFF007310800DD20A80098F82120B9F80028E74300A5CE57224FCFE8E728E01870209E1
:200F1F0087030987040987061919198A658B668C678E687565C5756612756780856577851C
:200F3F00667885677974012577FAE43578FCAE798A658C668E678577828578838579F012BC
:200F5F00116AFEFF7003020C5C8F82120B9F80CCE5737003020C5C75751530082DE5721400
:200F7F00FC8C728C01E7FA3395E0FBFCFE8A658B668C678E68200766AA657B007C007E0073
:200F9F008A658B668C678E688054300921E57224FCFE8E728E0187020987030987040987F7
:200FBF00061919198A658B668C678E688030E57224FEFE8E728E01870409870619EE339552
:200FDF00E0FBFA8C658E668B678A68200710AA65AB667C007E008A658B668C678E68300703
:200FFF0022E56830E71BC3E49565FAE49566FBE49567FCE49568FE8A658B668C678E6880B8
:20101F0002C207D20BA9757E00756900857382C006C001120BF2D001D006200B0BE569C490
:20103F00FCE7FB4CF7198002A7690EB20BE56545664567456870D289758E05E57470037598
:20105F007401200424200321ED04FEAC74C3EE9C5015758220C006C005C004120B9FD004B9
:20107F00D005D0061C80E68C7430070E75822DC005120B9FD00515748023ED602030050E89
:20109F0075822BC005120B9FD0051574800F30060C758220C005120B9FD005157420032224
:2010BF00AE748E041EC3ED9C502B3004047C3080027C208C82C006C005120B9FD005D00676
:2010DF0080E0C3ED95745008E574C39DF574800775740080028E74A9758D068E051EED60BB
:2010FF0026B20B200B0A09E7C4540FFD8D6980078705740F5DF569856982C006C001120B4A
:20111F00C2D001D00680D4200303020C5CAE748E051EED7003020C5C758220C006120B9F2D
:13113F00D00680EB8F82120B9F020C5C856A82856B83221F
:0B12C5003C4E4F20464C4F41543E0071
:18115200AA82AB8312116A6003A380F8C3E5829AF582E5839BF5832248
:0D001100758179121186E582600302000EF0
:1C116A0020F71430F6148883A88220F507E6A88375830022E280F7E49322E02294
:04118600758200224C
:00000001FF
